:1000000009C021C020C01FC01EC01DC01CC01BC015
:100010001AC019C011241FBECFE9CDBF10E0A0E661
:10002000B0E0E8E0F2E002C005900D92A036B10722
:10003000D9F710E0A0E6B0E001C01D92A036B107EC
:10004000E1F702D0DFC0DCCF18BA85E187BB8FE7CC
:1000500081BF80E886BD16BC6AE070E011E1E4E192
:10006000F0E020E1AEEEB2E034E145E050E0CEE178
:10007000D0E004E6B399FECF18BACB01000000002F
:100080000000000000000000000000000000000070
:100090000000000000000000000000000000000060
:1000A0000000000000000000019741F718BBCF01DD
:1000B0000000000000000000000000000000000040
:1000C0000000000000000000000000000000000030
:1000D000000000000000000000000000019741F750
:1000E00028BBCD010000000000000000000000005F
:1000F0000000000000000000000000000000000000
:1001000000000000000000000000000000000000EF
:10011000019741F738BBCA01000000000000000051
:1001200000000000000000000000000000000000CF
:1001300000000000000000000000000000000000BF
:1001400000000000019741F728BBCA010000000031
:10015000000000000000000000000000000000009F
:10016000000000000000000000000000000000008F
:100170000000000000000000019741F738BBCE01ED
:10018000000000000000000000000000000000006F
:10019000000000000000000000000000000000005F
:1001A000000000000000000000000000019741F77F
:1001B00086B381FF1EC0802F03C096B391FF19C084
:1001C000000000000000000000000000000000002F
:1001D000000000000000000000000000000000001F
:1001E000000000000000000000000000815029F71E
:1001F00001C028BB18BA03C086B381FF18BAB399EF
:0802000039CFFACFF894FFCFCB
:00000001FF
