:020000040800F2
:10000000C80D00208D040008E9040008E904000878
:10001000E9040008E9040008E90400080000000001
:10002000000000000000000000000000E9040008DB
:10003000E904000800000000E9040008E9040008E1
:10004000E9040008E9040008E9040008E9040008DC
:10005000E9040008E9040008E9040008E9040008CC
:10006000E9040008E9040008E9040008E9040008BC
:10007000E9040008E9040008E9040008E9040008AC
:10008000E9040008E9040008E9040008E90400089C
:10009000E9040008E9040008E9040008E90400088C
:1000A000E9040008E9040008E9040008E90400087C
:1000B000E9040008E9040008E9040008E90400086C
:1000C000E9040008E9040008E9040008E90400085C
:1000D000E9040008E9040008E9040008E90400084C
:1000E000E9040008E9040008E9040008E90400083C
:1000F000E9040008E9040008E9040008E90400082C
:10010000E9040008E9040008E9040008E90400081B
:10011000E9040008E9040008E9040008E90400080B
:10012000E9040008E9040008E9040008E9040008FB
:100130005FF808F110B5054C237833B9044B13B1BF
:100140000448AFF300800123237010BDD8040020C1
:100150000000000048520008084B10B51BB10848C9
:100160000849AFF300800848036803B910BD074B86
:10017000002BFBD0BDE81040184700BF0000000076
:1001800048520008DC040020D404002000000000D5
:1001900080B400AFBD465DF8047B704780B400AF0B
:1001A000BD465DF8047B704780B485B000AF7860D1
:1001B00039600023FB817B681B88FB817B682E4AAA
:1001C000934213D07B682D4A93420FD07B68B3F1E2
:1001D000804F0BD07B682A4A934207D07B68294A1C
:1001E000934203D07B68284A934208D1FB8923F0CD
:1001F0007003FB813B685A88FB891343FB817B6852
:10020000224A93420CD07B68214A934208D0FB8952
:1002100023F44073FB813B68DA88FB891343FB813D
:100220007B68FA891A803B689A887B689A853B6864
:100230001A887B681A857B680F4A93420FD07B68C7
:100240000E4A93420BD07B68124A934207D07B68D8
:10025000114A934203D07B68104A934204D13B6811
:100260001B7A9AB27B681A867B6801229A821437BD
:10027000BD465DF8047B7047002C0140003401400E
:100280000004004000080040000C00400010004046
:10029000001400400040014000440140004801407B
:1002A00080B483B000AF78600B46FB70FB78002B06
:1002B00008D07B681B889BB243F001039AB27B682D
:1002C0001A8007E07B681B889BB223F001039AB277
:1002D0007B681A800C37BD465DF8047B704700BF11
:1002E00080B483B000AF78600B467B807B687A88EF
:1002F0009A840C37BD465DF8047B704780B483B0A8
:1003000000AF78607B689B8C9BB218460C37BD466B
:100310005DF8047B704700BF80B500AF154A154BF0
:100320001B6843F0010313601249124B5A68124BC9
:1003300013404B600F4A0F4B1B6823F0847323F468
:10034000803313600B4A0B4B1B6823F4802313602C
:10035000084A084B5B6823F4FE035360054B4FF4D7
:100360001F029A6000F00CF8044B4FF000629A6094
:1003700080BD00BF001002400000FFF800ED00E06B
:1003800080B500AF00F002F880BD00BF80B483B03C
:1003900000AF00237B6000233B603A4A394B1B6867
:1003A00043F480331360374B1B6803F400333B6026
:1003B0007B6801337B603B68002B03D17B68B3F51E
:1003C000A06FF0D12F4B1B6803F40033002B02D039
:1003D00001233B6001E000233B603B68012B4BD1D4
:1003E000294A294B1B6843F010031360264A264B09
:1003F0001B6823F003031360234A234B1B6843F05D
:10040000020313601F4A1F4B5B6853601D4A1D4B5C
:100410005B6853601B4A1B4B5B6843F4806353600B
:10042000184A184B5B6823F47C135360154A154B2C
:100430005B6843F4E8135360124A124B1B6843F0A5
:100440008073136000BF0F4B1B6803F00073002B19
:10045000F9D00C4A0B4B5B6823F003035360094A45
:10046000084B5B6843F00203536000BF054B5B68B9
:1004700003F00C03082BF9D10C37BD465DF8047B63
:10048000704700BF001002400020024080B582B0DB
:1004900000AF104B7B60104B3B6007E03B681A1DC0
:1004A0003A607A68111D796012681A603B680B4ADD
:1004B0009342F3D30A480B494FF000028842B8BF79
:1004C00040F8042BFADBFFF727FF00F06FFC08373A
:1004D000BD4680BD5052000800000020D804002016
:1004E000D8040020C409002080B400AFFEE700BF9C
:1004F00080B584B000AF78600B467B807B681F4A74
:10050000934202D10023FB6015E07B681C4A9342B2
:1005100002D10123FB600EE07B681A4A934202D1AC
:100520000223FB6007E07B68174A934202D1032352
:10053000FB6000E01EE0154AFB6852F823207B8830
:100540001340002B00D015E0104AFB6852F823201E
:100550007B881A430D49FB6841F823207B883B8147
:100560001023FB720323BB7207F108037868194656
:1005700000F070F81037BD4680BD00BF0008014094
:10058000000C01400010014000140140F404002060
:1005900080B584B000AF786039603B689BB2BB81A6
:1005A0001023FB730323BB7307F10C037868194610
:1005B00000F050F81037BD4680BD00BF80B584B054
:1005C00000AF786039603B689BB2BB812823FB7326
:1005D0000323BB7307F10C037868194600F03AF85F
:1005E0001037BD4680BD00BF80B584B000AFF86055
:1005F000B9607A60BB689AB27B689BB213409BB2C9
:100600009BB2F868194600F0FFF87B6883F47F43DB
:1006100083F0FF037B60BB689AB27B689BB2134098
:100620009BB29BB2F868194600F0FCF81037BD4643
:1006300080BD00BF80B582B000AF786039603B6894
:100640009BB27868194600F0C5F80346184608378B
:10065000BD4680BD80B489B000AF786039600023AA
:10066000FB6100233B610023BB610023FB6000238F
:100670007B610023BB603B68DB7803F00F03FB6109
:100680003B68DB7803F01003002B05D03B689B78B8
:100690001A46FB691343FB613B681B88DBB2002BE6
:1006A00044D07B681B687B610023BB6138E0BB6979
:1006B000012202FA03F3FB603B681B881A46FB68C1
:1006C00013403B613A69FB689A4226D1BB699B00A3
:1006D000FB60FB680F2202FA03F3BB60BB68DB43DD
:1006E0007A6913407B61FB68FA6902FA03F37A695D
:1006F00013437B613B68DB78282B05D1BB69012262
:100700009A407B685A6108E03B68DB78482B04D14B
:10071000BB6901229A407B681A61BB690133BB61E6
:10072000BB69072BC3D97B687A691A603B681B8851
:10073000FF2B4AD97B685B687B610023BB613EE08D
:10074000BB6908331A4601239340FB603B681B8852
:100750001A46FB6813403B613A69FB689A422BD109
:10076000BB699B00FB60FB680F2202FA03F3BB60CE
:10077000BB68DB437A6913407B61FB68FA6902FA64
:1007800003F37A6913437B613B68DB78282B07D13D
:10079000BB6908331A46012303FA02F27B685A61E7
:1007A0003B68DB78482B07D1BB6908331A46012325
:1007B00003FA02F27B681A61BB690133BB61BB6952
:1007C000072BBDD97B687A695A602437BD465DF82E
:1007D000047B704780B485B000AF78600B467B80A7
:1007E0000023FB737B689A687B881340002B02D040
:1007F0000123FB7301E00023FB73FB7B18461437D6
:10080000BD465DF8047B704780B483B000AF78606C
:100810000B467B807A887B681A610C37BD465DF891
:10082000047B704780B483B000AF78600B467B8058
:100830007A887B685A610C37BD465DF8047B704747
:1008400080B582B000AF78600BE07B681B781846FB
:1008500002F026FC47F2305002F012F87B680133B8
:100860007B607B681B78002BEFD10837BD4680BDCD
:1008700080B582B000AF002002F010FB47F230508C
:1008800001F0FEFF012002F009FB47F2305001F0B9
:10089000F7FF002002F002FB47F2305001F0F0FFBA
:1008A000012002F0FBFA47F2305001F0E9FF02F0BC
:1008B000A1FB0320012102F0A7FB344802F0C8FB92
:1008C00008237B600FE07B68DBB20120194602F051
:1008D0009BFB2F4802F0BCFB47F2305001F0D0FFE9
:1008E0007B68013B7B607B68002BECDA00200021F9
:1008F00002F08AFB274802F0ABFB0120002102F046
:1009000083FB254802F0A4FB47F2305001F0B8FF0A
:100910000120002102F078FB204802F099FB022020
:10092000002102F071FB1E4802F092FB47F23050AA
:1009300001F0A6FF0020012102F066FB1948FFF735
:100940007FFF0120012102F05FFB1748FFF778FFCE
:100950000220012102F058FB1448FFF771FF47F213
:10096000305001F08DFF02200D2102F04DFB1048A8
:10097000FFF766FF0F4801F083FF02F03BFB00200A
:1009800002F08CFA0837BD4680BD00BF184A000847
:100990002C4A0008344A0008384A00083C4A00083B
:1009A000404A0008444A00084C4A00085C4A0008D3
:1009B000684A0008A0BB0D0080B483B000AF786027
:1009C000044A7B6852F8233018460C37BD465DF860
:1009D000047B70470C05002080B483B000AF7860C2
:1009E000396005497B683A6841F823200C37BD46D9
:1009F0005DF8047B704700BF0C05002080B584B013
:100A000000AF786002F0F6FA0020002102F0FCFA54
:100A10001C4802F01DFB0120022102F0F5FA786863
:100A200002F016FB184802F013FB0220062102F028
:100A3000EBFA164802F00CFB0320062102F0E4FA60
:100A4000134802F005FB02F041FAB86002F0D2FA56
:100A50000120042102F0D8FABB68402B05D10D48D3
:100A600002F0F6FA0123FB7304E00B4802F0F0FAFF
:100A70000023FB73094801F003FFFB7B1846103786
:100A8000BD4680BD5C4E0008684E00086C4E0008F4
:100A90007C4E00088C4E00089C4E000860E3160057
:100AA00080B582B000AF78607B68013B7B607B687B
:100AB000052B00F22B8101A252F823F0D50A000881
:100AC000310B00088F0B0008ED0B00084B0C0008E1
:100AD000A90C00088F48FFF791FF0346002B00D1B7
:100AE00015E10A20C821FFF777FF0B200021FFF74F
:100AF00073FF0C200021FFF76FFF0D200021FFF78F
:100B00006BFF0E20C821FFF767FF0F204FF416710F
:100B1000FFF762FF10202821FFF75EFF1120002160
:100B2000FFF75AFF12204FF40771FFF755FFEAE075
:100B30007948FFF763FF0346002B00D1E7E00A2066
:100B40004FF40771FFF748FF0B202821FFF744FF00
:100B50000C202821FFF740FF0D202821FFF73CFF44
:100B60000E204FF4C871FFF737FF0F206421FFF705
:100B700033FF10202821FFF72FFF11200021FFF75E
:100B80002BFF12204FF40771FFF726FFBBE06348ED
:100B9000FFF734FF0346002B00D1B8E00A204FF4E2
:100BA000E671FFF719FF0B20A021FFF715FF0C20BE
:100BB0002821FFF711FF0D202821FFF70DFF0E2040
:100BC0004FF49671FFF708FF0F20FA21FFF704FF9B
:100BD00010202821FFF700FF11200021FFF7FCFE65
:100BE00012204FF40771FFF7F7FE8CE04C48FFF737
:100BF00005FF0346002B00D189E00A202821FFF7DA
:100C0000EBFE0B202821FFF7E7FE0C202821FFF741
:100C1000E3FE0D202821FFF7DFFE0E204FF4C87100
:100C2000FFF7DAFE0F204FF41671FFF7D5FE102004
:100C30002821FFF7D1FE11200021FFF7CDFE122061
:100C40004FF40771FFF7C8FE5DE03648FFF7D6FEA8
:100C50000346002B00D15AE00A206421FFF7BCFEB6
:100C60000B206421FFF7B8FE0C206421FFF7B4FECF
:100C70000D206421FFF7B0FE0E204FF4C871FFF77E
:100C8000ABFE0F204FF41671FFF7A6FE10202821AF
:100C9000FFF7A2FE11200021FFF79EFE12204FF465
:100CA0000771FFF799FE2EE01F48FFF7A7FE0346E6
:100CB000002B00D12BE00A20A021FFF78DFE0B2096
:100CC000A021FFF789FE0C20A021FFF785FE0D2053
:100CD000A021FFF781FE0E204FF4C871FFF77CFEC4
:100CE0000F204FF41671FFF777FE10202821FFF731
:100CF00073FE11200021FFF76FFE12204FF40771E1
:100D0000FFF76AFE00BF01F0E7FF00E000BF083711
:100D1000BD4680BDA84E0008B44E0008C44E000871
:100D2000D44E0008DC4E0008E84E000880B586B0BE
:100D300000AFFFF7F1FA3B1D184601F05DFA042001
:100D4000012101F00BFB0820012101F007FB10201D
:100D5000012101F003FB2020012101F0FFFA4FF4F3
:100D60000070012101F0FAFA4FF48060012101F0D6
:100D7000F5FA4FF40040012101F0F0FA4FF08050F5
:100D8000012101F009FB074A064B9B6943F001036F
:100D90009361054A044B5B6843F000735360183756
:100DA000BD4680BD001002400000014080B584B007
:100DB00000AF0023FB600023BB60FFF7B7FF01F02B
:100DC0002DFD142002F014F802F014F902F0DEFAFE
:100DD000FFF74EFDFFF7DCF9FFF7E0F901F05CFEED
:100DE00001F0ACF9002001F02DF902F08DF8034676
:100DF000002B14D002F0FEF80120032102F004F9C8
:100E00007F4802F025F902E07E4B15221A6002F0BD
:100E10007BF80346002BF7D17B4801F031FD02F04F
:100E2000E9F80120032102F0EFF8784802F010F908
:100E30000220002102F0E8F8754802F009F901F0FB
:100E400091FD01F047FE0320092102F0DDF8714B0E
:100E50001B68184602F030F96F4802F0F9F86D4B44
:100E60001B68B3F5617F04DA02F04EF80346002BED
:100E7000E5D042F2107001F003FD02F045F80346A0
:100E8000002BF6D102F0B6F80120032102F0BCF8E5
:100E9000624802F0DDF80220032102F0B5F8604854
:100EA00002F0D6F800237B6063E00320002102F00B
:100EB000ABF85C4802F0CCF801F054FD01F00AFEFA
:100EC000594B1B68B3F5617F04DB02F01DF8034644
:100ED000002BEAD042F2107001F0D2FC02F014F8BC
:100EE0000346002BF6D10320002102F08DF84F4875
:100EF00002F0AEF80320002102F086F84C4802F020
:100F0000A7F87B680133184602F0D6F8786801210B
:100F100002F006FA42F2107001F0B2FC01F022FD7C
:100F200001F0D8FD404B1B68B3F5617F0DDA4148F5
:100F300002F08EF83C4B1B68184602F0BDF83648AC
:100F400002F086F801F0C2FF05E03B4802F080F8AD
:100F50003A4801F095FC7868002102F0E1F9294B4C
:100F60001B68152B02D1364801F08AFC7B680133DF
:100F70007B607B68072B98DD00237B600EE07B683D
:100F8000991C304A7B685B01134418331B68084680
:100F90001946FFF721FD7B6801337B60194B1B6805
:100FA0007A689A42EBDB4FF0FF333B6000F078FD4C
:100FB00038600120FFF700FD0346112B1FD1224BA3
:100FC0001B78002B02D00023FB600CE0FB68013390
:100FD000FB60FB681D4A934205D9032001F032F8FB
:100FE00049F64043BB60BB68002B08DDBB68013B92
:100FF000BB60BB68002B02D1002001F023F8D5E7CD
:10100000F44E00080000002040420F00044F00088A
:10101000104F000888050020244F00082C4F0008BE
:10102000384F0008404F000894050020604F00082A
:10103000804F0008884F0008944F0008400D0300BF
:10104000801A0600BC4B000874050020C0C62D00A5
:1010500080B582B000AF23484FF48051FFF7EAFA21
:101060000346002B03D1204B03221A6033E01E4BB2
:101070001B68002B04DD1C4B1B68013B1A4A1360E4
:10108000194B1B68002B26D100237B6006E042F23F
:10109000107001F0F5FB7B6801337B607B68312BBE
:1010A0000BDC114B1B68002B07D10E484FF480510D
:1010B000FFF7C0FA0346002BE9D10A484FF48051EC
:1010C000FFF7B8FA0346002B02D1074B03221A6040
:1010D000064B00221A60044B1B6818460837BD46B1
:1010E00080BD00BF000C01406C050020840500207D
:1010F00080B500AF0A480121FFF79CFA0346002B98
:1011000001D001230AE007484FF40041FFF792FAAB
:101110000346002B01D0022300E00023184680BDC7
:101120000008014000100140B0B5A2B000AF7860E7
:10113000B54BFB64012001F0B1FE41F2883001F0B3
:101140009FFBB2484FF48041FFF774FAB864BB6C60
:10115000002B1DD0AE4B1B78002B19D101F04AFF9C
:101160000120002101F050FFAA4801F071FF022088
:10117000002101F049FFA84801F06AFF01F0ACFD31
:10118000A64801F07DFB002001F088FE00F030BC95
:101190007B68002B1AD10023C7F8843011E0A048E7
:1011A0004FF48051FFF746FA0346012B04D100208B
:1011B00001F074FE00F01CBCD7F884300133C7F88E
:1011C0008430D7F88430B3F57A7FE8DB0120FFF76D
:1011D000F3FB0346112B13D001F00CFF0120032178
:1011E00001F012FF8F4801F033FF0220032101F0CC
:1011F0000BFF8D4801F02CFF8C4801F041FBF7E319
:101200008B484FF48061FFF7D9F980484FF4804153
:10121000FFF7D4F901F078FE7864864801F030FBDE
:1012200001F072FE78647B6C002BF6D1824B0022B9
:101230001A60824B00221A60814B00221A600E2035
:10124000FFF7BAFB03463B643B6C002B08D101F06F
:1012500043FD7C4801F0FCFE7B4801F011FBC7E335
:101260000F20FFF7A9FB0346184602F09FFB02463A
:101270000B461046194662A3D3E9002302F00CFC8A
:1012800002460B461046194602F0A0FE0346FB64D8
:101290003B6C002B08D101F01FFD6C4801F0D8FE1B
:1012A000694801F0EDFAA3E30023FB670023C7F8C8
:1012B000803013E0D7F880300A331846FFF77CFB04
:1012C0000346FB63FB6B002B00D10BE0FB6F01338C
:1012D000FB67D7F880300133C7F88030D7F880300B
:1012E000032BE7DDFB6F002B0DD1002002F036F859
:1012F00001F0F2FC01F0F0FC554801F0A9FE524863
:1013000001F0BEFA74E30023C7F8803014E0D7F888
:1013100080300A331846FFF74FFB03461A46D7F8CA
:1013200080309B0007F188010B4443F8702CD7F8FC
:1013300080300133C7F88030D7F88020FB6F9A42A5
:10134000E5DB1220FFF738FB0346BB63BB6BBB60DA
:10135000BB6BFB60BB6B3B61BB6B7B6101F04AFE0F
:101360000120032101F050FE3A4801F071FE1020E7
:10137000FFF722FB0346BB67B86F012101F0F0FEC7
:10138000354801F065FEFF2000F05CFE77E0334851
:1013900001F076FABB6F013BBB6701F0B5FD7864E5
:1013A0007B6C002B60D0002001F0D8FF01F022FE02
:1013B0000120032101F028FE294801F049FE002008
:1013C00000F040FE274801F05BFAFF2000F03AFEF3
:1013D000244801F055FA002000F034FE00BF01F06F
:1013E00093FD0346002BFAD17B68002B04D1FFF755
:1013F0002FFE0346002BF7D1FAE200BFAFF30080C7
:101400008DEDB5A0F7C6B03E52491D3A001401401B
:10141000720500209C4F0008A44F0008400D0300F7
:10142000000C0140AC4F0008B44F000820A1070099
:1014300000080140A0860100B8050020C00500207A
:10144000B0050020C04F000840420F00D44F0008F4
:10145000E44F0008F44F000800500008B882010073
:1014600008500008801A06000220082101F0CCFD77
:10147000B86F012101F074FEB74801F0E9FDBB6FC0
:10148000002B84DC1120FFF797FA03461A46B34B72
:101490001A6001F0AFFD02200C2101F0B5FDB0484B
:1014A00001F0D6FD012001F059FFAE4A3B6C92FBE2
:1014B000F3F37B634FF4CC633B6300237B677B6B6D
:1014C0003B670020002101F09FFDA44B1B68002B0F
:1014D00017DDA24B1B68A44A82FB03129210DB1794
:1014E000D31A184601F0E8FDA04801F0B1FDBB6831
:1014F0009D4A82FB03129210DB17D31A184601F0A3
:10150000DBFD9B4801F0A4FD0023C7F880301EE0FE
:10151000D7F880309B0007F18802134453F8703CE1
:10152000914A82FB03129210DB17D31A184601F07E
:10153000C3FDFB6F5A1ED7F880309A4202DD8D48FA
:1015400001F086FDD7F880300133C7F88030D7F836
:101550008020FB6F9A42DBDB874801F079FD012098
:10156000002101F051FD386C01F0A6FD834801F027
:101570006FFD7A4B1B683A6C02FB03F37A4A82FBDD
:1015800003129210DB17D31A744A13600320002150
:1015900001F03AFDFFF7ACFDF866FB6E002B12D0B0
:1015A000774B1B78002B0ED10123FB6601F022FD47
:1015B0000120032101F028FD724801F049FD0020BF
:1015C00000F040FD07E00023FB66C32000F03AFD79
:1015D0006D4801F055F901F041F90023BB66002385
:1015E0007B6600233B66002387F85F300023BB65E2
:1015F00000237B65A6E103200F2101F005FD5320A8
:1016000001F04EFDFB6E012B16D101F07DFC7864DC
:101610007B6C002B0FD001F0EDFC0120032101F0C9
:10162000F3FC5A4801F014FD00BF01F06DFC0346C5
:10163000002BFAD193E185E103200F2101F0E4FCB6
:10164000502001F02DFD01F011F90346184602F07B
:10165000ADF904460D46386F02F0B8F902460B4664
:10166000104619463AA3D3E9002302F015FA0246C0
:101670000B462046294602F095FC0346002B02D07B
:10168000012001F06BFE03200F2101F0BDFC43207F
:1016900001F006FD01F0EAF802463B6F9A42C0F005
:1016A0004A813B484FF48041FEF7C4FFF862FB6A71
:1016B000002B19D0374B1B78002B15D101F09AFC69
:1016C0000120002101F0A0FC334801F0C1FC022000
:1016D000002101F099FC314801F0BAFC01F0FCFA5C
:1016E0002F4801F0CDF83AE101F0B8F803200F21BE
:1016F00001F08AFC532001F0D3FC184B1B68002B2F
:1017000050DD07F10803184604213A6BFB6C01F029
:10171000FDFE3865114B1B68013B104A1360032026
:10172000002101F071FC7B6E3A6C93FBF2F2396C94
:1017300001FB02F29B1A002B57D1502001F0B0FCA4
:101740007A6E3B6C92FBF3F3184601F0B5FC4CE06B
:101750009A9999999999E93F1050000884050020B9
:101760001450000800E71800676666661C50000801
:101770002050000824500008285000082C50000871
:101780007005002030500008400D0300085000088C
:1017900000140140720500209C4F0008A44F00086F
:1017A00040420F0007F118031846F96F3A6BFB6CC3
:1017B00001F0ACFE38657B6B3B670320002101F034
:1017C00023FC7B6E3A6C93FBF2F2396C01FB02F264
:1017D0009B1A002B09D1532001F062FC7A6E3B6CFE
:1017E00092FBF3F3184601F067FC03200F2101F090
:1017F0000BFC452001F054FC3B6D002B02DCBB6D63
:101800000133BB650220002101F0FEFBB86D01F041
:1018100053FC01F02BF80346BB623B6D002B03DD4C
:10182000BA6A3B6F9A4255DD7B6E322B52DD724BAA
:101830001B78002B4ED13B6E01333B667B6E013330
:101840007B66BB6E322B3DDD002000F0FBFB01F020
:10185000D1FB0120002101F0D7FB684801F0F8FB23
:10186000786E01F029FC664801F0F2FB02200021AD
:1018700001F0CAFBBA6A3B6F9A4203DD614801F08E
:10188000E7FB14E03B6D002B02DB5F4801F0E0FB5F
:10189000386D01F011FC5D4801F0DAFB03200221F4
:1018A00001F0B2FB5A4B1B68184601F0D1FB01F066
:1018B00013FA002001F052FD012387F85F3001F098
:1018C00005FB4CE07B6E322B03DDBB6E0A33BB663F
:1018D0002BE02AE07B6D01337B657B6D03F0800399
:1018E000002B03D0012001F0D9FA02E0002001F022
:1018F000D5FA7B6E01337B6601F006FB78647B6C66
:10190000002B0DD0434801F0A3FB03E042F210701E
:1019100000F0B6FF01F0F8FA0346002BF6D11EE006
:10192000BB6EDA0F13445B10BB667B6F01337B67C2
:10193000322000F0A5FF03200F2101F065FB2120DC
:1019400001F0AEFB7B68012B3FF455AE7B68002BAA
:1019500005D1FFF77DFB0346002B7FF44CAE002042
:1019600001F09CFA01F0BAFD002000F06BFB0020B2
:1019700001F0F4FC284800F083FFFF2000F062FB38
:10198000254800F07DFF002000F05CFB97F85F30F9
:10199000002B02D0204800F073FF002001F07EFAF7
:1019A00001F028FB0020002101F02EFB1B4801F074
:1019B0004FFB786E01F080FB194801F049FB386E4F
:1019C00001F07AFB0120012101F01EFB3B6E42F287
:1019D000107202FB03F27B6E92FBF3F318460221B6
:1019E00001F0BEFB0F4801F033FB0F4800F048FF49
:1019F0008837BD46B0BD00BF7105002040500008CB
:101A000048500008505000085C5000086C50000816
:101A1000B405002008500008400D03007450000871
:101A20007C50000880500008404B4C0080B483B0CC
:101A300000AF786039607B68012B0FD0022B18D083
:101A4000002B00D020E03B68002B03DD114B01226E
:101A50001A7019E00F4B00221A7015E03B68002B3A
:101A600003DD0D4B01221A700EE00B4B00221A70A1
:101A70000AE03B68002B03DD084B01221A7002E0EC
:101A8000064B00221A7000BF0C37BD465DF8047B80
:101A9000704700BF7105002070050020720500200E
:101AA00080B58CB000AF0120FEF786FF0346FB62D5
:101AB000FB6A02331846FEF77FFF03467B62002075
:101AC00001F0ECF9AB484FF48051FEF7B3FD03464B
:101AD000002B06D10020FFF727FB4FF6FF733B6278
:101AE00002E001F055FA38623B6A102B32D0102B1D
:101AF00006DC042B45D0082B18D0012B12D0B5E101
:101B0000402B00F01081402B03DC202B00F0A28042
:101B1000ACE1802B00F01A814FF6FF72934200F087
:101B2000B481A3E10120FFF7FFFAAFE1FB6A002BCC
:101B30000FDDFB6A013BFB62FB6A01201946FEF7E1
:101B40004BFFFB6A02331846FEF736FF03467B6203
:101B50009CE19BE1884B1B685A1EFB6A9A420FDD91
:101B6000FB6A0133FB62FB6A01201946FEF734FF72
:101B7000FB6A02331846FEF71FFF03467B6285E1CE
:101B800084E17E4AFB6A5B01134418335B681846A4
:101B90004FF0FF31FFF74AFF784AFB6A5B011344BD
:101BA00010331B68002B0CDA744AFB6A5B01134488
:101BB00008331B68002B03DBF86AFEF771FF65E151
:101BC00064E16E4AFB6A5B01134410335B68002BCF
:101BD00009DD6A4AFB6A5B01134410335B687A6A69
:101BE000D31A7B621AE0786A01F00AFCB8617B6A5A
:101BF000143B7B62786A01F003FC7861BA697B6907
:101C00009A420BD15D4AFB6A5B01134408331A68A0
:101C10007B6A9A4202DA7B69002BE8DA574AFB6A50
:101C20005B01134408331A687B6A9A4206DD534A03
:101C3000FB6A5B01134408331B687B62FB6A9A1CD6
:101C40007B6A10461946FEF7C7FE1FE142F210708C
:101C500000F016FE01F058F90346002BF6D1474A72
:101C6000FB6A5B01134418335B6818460121FFF7D8
:101C7000DDFE424AFB6A5B01134410331B68002BF4
:101C80000CDA3E4AFB6A5B01134408331B68002BE5
:101C900003DBF86AFEF704FFF8E0F7E0374AFB6A77
:101CA0005B01134410335B68002B09DD334AFB6A88
:101CB0005B01134410335B687A6A13447B621AE059
:101CC000786A01F09DFB38617B6A14337B62786A25
:101CD00001F096FBF8603A69FB689A420BD1FB6809
:101CE000002B08DD254AFB6A5B01134408335A6860
:101CF0007B6A9A42E8DC214AFB6A5B0113440833A1
:101D00005A687B6A9A4206DA1C4AFB6A5B011344F2
:101D100008335B687B62FB6A9A1C7B6A1046194633
:101D2000FEF75AFEB2E0FB6A002B0EDDFB6A0133C0
:101D30001846FEF741FE03467B62FB6A9A1C7B6AEB
:101D400010461946FEF748FEA0E09FE00C4B1B68CA
:101D5000002B6ED10F2000F075F90A4800F090FDBD
:101D600009484FF48061FEF729FC0023BB60002383
:101D7000FB6144E0000C014000000020BC4B000867
:101D80006805002020A10700000801409A4800F0E3
:101D900077FDFB690133FB61FFF7AAF9B860BB6807
:101DA000012B09D101F026F90120002101F02CF9C5
:101DB000924801F04DF915E0BB68022B09D101F002
:101DC00019F90120032101F01FF98D4801F040F9B4
:101DD00008E001F00FF90120012101F015F989480F
:101DE00001F036F9FB69322B09DD0220052101F0F3
:101DF0000BF9854801F02CF9844B01221A6001F09F
:101E000083F80346002BC1D1804B1B68002B0FD1F8
:101E1000002000F017F97E4800F032FD0F2000F09E
:101E200011F97B4800F02CFD002000F00BF91CE0BC
:101E30001BE0002000F006F9754800F021FD0F209E
:101E400000F000F9724800F01BFD002000F0FAF8E5
:101E500002E0694800F014FD01F056F80346002B3B
:101E6000F7D16A4B00221A6010E00FE0694B1B7833
:101E7000002B01D1FB6ABBE0664B00221A700120E7
:101E80000021FEF7A9FD0023FB6200BFFB6A013BB6
:101E9000BB6245E0BA6AFB6AD31A01337B607B6898
:101EA000DBB21846022101F0AFF8BB6A002B04DB5D
:101EB000594B1B68BA6A9A4203DB584801F0C8F8CC
:101EC0002BE0574ABB6A5B0113441B68184601F0BC
:101ED000BFF8534ABB6A5B01134410331B68002BE5
:101EE00010DBBB6A02331846FEF766FD034619464F
:101EF0004B4ABB6A5B01134410331B680846194602
:101F000001F02EF9464ABB6A5B0113445B68184630
:101F100001F09EF8414801F09BF8BB6A0133BB62B7
:101F2000FB6A5A1CBB6A9A42B4DA0020002101F015
:101F30006BF8FB6A002B03DD3A4801F089F802E0F8
:101F4000394801F085F80120002101F05DF8344A9C
:101F5000FB6A5B01134410335B68002B20DD304AC1
:101F6000FB6A5B01134408331A687B6A9A4203DAFE
:101F70002E4801F06DF802E02D4801F069F8284A7A
:101F8000FB6A5B01134408335A687B6A9A4203DD9B
:101F9000284801F05DF812E0254801F059F80EE0FC
:101FA0001F4AFB6A5B01134410335B68002B03DAA2
:101FB000214801F04DF802E01B4801F049F80220E9
:101FC000002101F021F8144B1B685A1EFB6A9A424B
:101FD00003DD1A4801F03CF802E0134801F038F83C
:101FE0000320002101F010F8154801F031F8FB6AD8
:101FF00018463037BD4680BDA086010084500008D9
:102000009C500008B0500008C0500008680500202F
:10201000400D03000400002000000020D050000804
:10202000BC4B0008E8500008EC500008F0500008D5
:1020300024500008F4500008F8500008FC50000834
:102040000051000880B584B000AF78607B6803F071
:102050000F03002B03D0364B01221A7002E0344BE1
:1020600000221A70334B1B68002B1ED132484FF4EC
:102070000071FEF7D7FB30484FF48071FEF7D2FBBA
:102080002D488021FEF7CEFB2B484FF40071FEF760
:102090002FFA29484FF48071FEF72AFA264880214A
:1020A000FEF726FA234B01221A600123BB600023AE
:1020B000FB6026E07A68BB681340002B05D01E4801
:1020C0004FF48071FEF7A0FB04E01B484FF48071D1
:1020D000FEF7A8FB642000F0D3FB17488021FEF731
:1020E00093FB642000F0CCFB13488021FEF79AFBA1
:1020F000322000F0C5FB7B685B107B60FB6801331E
:10210000FB60FB68072BD5DD0B484FF40071FEF731
:102110007BFB642000F0B4FB07484FF40071FEF72E
:1021200081FB642000F0ACFB1037BD4680BD00BFD2
:1021300074050020780500200010014080B582B0B1
:1021400000AF00237B600CE001227B6802FA03F3FE
:102150001846FFF777FF184800F092FB7B680133C1
:102160007B607B68072BEFDD0320FFF76BFF1248D6
:1021700000F086FB0F20FFF765FF0F4800F080FBA3
:102180000F20FFF75FFF0C4800F07AFB4020FFF7BD
:1021900059FF0A4800F074FB8020FFF753FF064800
:1021A00000F06EFB0020FFF74DFF034800F068FBD6
:1021B0000837BD4680BD00BF400D0300E09304001A
:1021C00080B485B000AF78600023FB60094B5B688A
:1021D000FB60FB6823F44043FB60FA687B681343B1
:1021E000FB60044AFB6853601437BD465DF8047B0E
:1021F000704700BF0010024080B487B000AF786025
:1022000000237B6100233B610023FB600023BB6054
:102210004D4B5B6803F00C037B617B69042B07D09B
:10222000082B09D0002B34D17B68484A1A6034E06F
:102230007B68464A1A6030E0434B5B6803F47013D6
:102240003B61414B5B6803F48033FB603B699B0C53
:1022500002333B61FB68002B06D13B693C4A02FB21
:1022600003F27B681A6013E0374B5B6803F40033BA
:10227000002B06D03B69364A02FB03F27B681A60EA
:1022800006E03B69314A02FB03F27B681A6004E016
:1022900003E07B682D4A1A6000BF2B4B5B6803F09C
:1022A000F0037B617B691B097B612A4A7B691344CC
:1022B0001B78DBB2BB607B681A68BB68DA407B685E
:1022C0005A60214B5B6803F4E0637B617B691B0A06
:1022D0007B61204A7B6913441B78DBB2BB607B685F
:1022E0005A68BB68DA407B689A60174B5B6803F4F6
:1022F00060537B617B69DB0A7B61164A7B6913440F
:102300001B78DBB2BB607B685A68BB68DA407B68CD
:10231000DA600D4B5B6803F440437B617B699B0B88
:102320007B610D4A7B6913441B78DBB2BB607B6821
:10233000DA68BB68B2FBF3F27B681A611C37BD46F2
:102340005DF8047B704700BF0010024000127A0065
:1023500000093D00080000201800002080B483B070
:1023600000AF78600B46FB70FB78002B06D0094964
:10237000084B9A697B6813438B6106E00549054B5E
:102380009A697B68DB4313408B610C37BD465DF86F
:10239000047B70470010024080B483B000AF7860C7
:1023A0000B46FB70FB78002B06D00949084BDA6915
:1023B0007B681343CB6106E00549054BDA697B680E
:1023C000DB431340CB610C37BD465DF8047B70479F
:1023D0000010024080B483B000AF78600B46FB7001
:1023E000FB78002B06D00949084BDA687B68134359
:1023F000CB6006E00549054BDA687B68DB43134098
:10240000CB600C37BD465DF8047B7047001002407E
:1024100080B582B000AF78607B68174A93420AD1DA
:102420004FF400700121FFF7D5FF4FF40070002139
:10243000FFF7D0FF1CE07B68104A93420AD14FF4AB
:1024400080600121FFF7C6FF4FF480600021FFF795
:10245000C1FF0DE07B680A4A934209D14FF4004066
:102460000121FFF7B7FF4FF400400021FFF7B2FF53
:102470000837BD4680BD00BF002401400028014050
:10248000003C014080B485B000AF78603960002323
:10249000FB600023FB727B685B68FB60FB6823F4D6
:1024A000702323F48073FB603B681A683B681B79D8
:1024B0001B021343FA681343FB607B68FA685A6097
:1024C0007B689B68FB60FA68164B1340FB603B68B7
:1024D000DA683B689B681A433B685B795B0013438F
:1024E000FA681343FB607B68FA689A607B68DB6A72
:1024F000FB60FB6823F47003FB603B681B7C013BC3
:10250000DAB2FB7A1343FB72FB7A1B05FA681343BA
:10251000FB607B68FA68DA621437BD465DF8047BBD
:10252000704700BFFDF7F1FF80B483B000AF786063
:102530000B46FB70FB78002B06D07B689B6843F052
:1025400001027B689A6005E07B689B6823F00102CA
:102550007B689A600C37BD465DF8047B704700BF0E
:1025600080B483B000AF78607B689B6843F008025A
:102570007B689A600C37BD465DF8047B704700BFEE
:1025800080B485B000AF78600023FB737B689B68E4
:1025900003F00803002B02D00123FB7301E00023AA
:1025A000FB73FB7B18461437BD465DF8047B704710
:1025B00080B483B000AF78607B689B6843F004020E
:1025C0007B689A600C37BD465DF8047B704700BF9E
:1025D00080B485B000AF78600023FB737B689B6894
:1025E00003F00403002B02D00123FB7301E000235E
:1025F000FB73FB7B18461437BD465DF8047B7047C0
:1026000080B483B000AF78600B46FB70FB78002B82
:1026100006D07B689B6843F4A0027B689A6005E063
:102620007B689B6823F4A0027B689A600C37BD46E8
:102630005DF8047B704700BF80B485B000AF786060
:10264000084611461A460346FB700B46BB701346FC
:102650007B700023FB600023BB60FB78092B23D930
:102660007B68DB68FB60FB78A3F10A0213465B0022
:102670001344072202FA03F3BB60BB68DB43FA682A
:102680001340FB607978FB78A3F10A0213465B00E4
:10269000134401FA03F3BB60FA68BB681343FB60A1
:1026A0007B68FA68DA601EE07B681B69FB60FA7879
:1026B00013465B001344072202FA03F3BB60BB68B6
:1026C000DB43FA681340FB607978FA7813465B00C5
:1026D000134401FA03F3BB60FA68BB681343FB6061
:1026E0007B68FA681A61BB78062B21D87B685B6B24
:1026F000FB60BB785A1E13469B0013441F2202FA4C
:1027000003F3BB60BB68DB43FA681340FB60F978F6
:10271000BB785A1E13469B00134401FA03F3BB60B7
:10272000FA68BB681343FB607B68FA685A6347E04A
:10273000BB780C2B21D87B681B6BFB60BB78DA1F46
:1027400013469B0013441F2202FA03F3BB60BB68CD
:10275000DB43FA681340FB60F978BB78DA1F134655
:102760009B00134401FA03F3BB60FA68BB68134390
:10277000FB607B68FA681A6322E07B68DB6AFB60B7
:10278000BB78A3F10D0213469B0013441F2202FAEB
:1027900003F3BB60BB68DB43FA681340FB60F97866
:1027A000BB78A3F10D0213469B00134401FA03F317
:1027B000BB60FA68BB681343FB607B68FA68DA6247
:1027C0001437BD465DF8047B704700BF80B483B00A
:1027D00000AF78607B68DB6C9BB218460C37BD4657
:1027E0005DF8047B704700BF80B485B000AF7860AF
:1027F0000B46FB700023FB737B681A68FB78134061
:10280000002B02D00123FB7301E00023FB73FB7B51
:1028100018461437BD465DF8047B704780B584B018
:1028200000AF01200121FFF7B7FD4223BB80002349
:10283000FB804FF6FF733B8100237B8100233B73BA
:102840003B1D4FF080401946FDF7AEFC4FF0804035
:102850000121FDF725FD1037BD4680BD80B500AFD5
:102860004FF080400021FDF73BFD80BD80B500AFFB
:102870004FF08040FDF742FD0346184680BD00BF83
:1028800080B588B000AF7860FFF7F0FF0346FB83A8
:10289000324A4FF00003C7E904237B681A464FF021
:1028A0000003796902FB01F0396903FB01F101447E
:1028B0003869A0FB022319440B46C7E90423C7E982
:1028C0000423D7E9042310461946254A4FF0000394
:1028D00001F042FD02460B46C7E90423D7E9042371
:1028E000134305D14FF001024FF00003C7E9042361
:1028F00028E0FFF7BBFF0346FB81FA89FB8B9A4276
:102900000DD3FA89FB8BD31A1A464FEAE273D7E943
:102910000401821A61EB0303C7E9042310E0FB8B77
:10292000C3F57F43FF33FA89134401331A464FEA54
:10293000E273D7E90401821A61EB0303C7E90423B8
:10294000FB89FB83D7E90423012A73F10003D0DA62
:10295000FB8B18462037BD4680BD00BF00E718003E
:1029600040420F0080B400AFBD465DF8047B704765
:1029700080B588B000AF78604FF40040FFF720FCCE
:102980007868FFF745FD0023FB6000233B740023BC
:102990007B744FF460237B610023BB6101233B7791
:1029A00007F10C0378681946FFF76CFD7868012180
:1029B000FFF7BAFD7868FFF7D3FD00BF7868FFF72F
:1029C000DFFD0346002BF9D17868FFF7F1FD00BF6A
:1029D0007868FFF7FDFD0346002BF9D12037BD468F
:1029E00080BD00BF80B582B000AF78600B46FB7041
:1029F000FB787868194601220023FFF71DFE7868EE
:102A00000121FFF7FDFD00BF78680221FFF7ECFE12
:102A10000346002BF8D07868FFF7D8FE0346184627
:102A20000837BD4680BD00BF80B582B000AF78607A
:102A30007B689B6843F4A0027B689A6000BF78685B
:102A40000221FFF7D1FE0346002BF8D07868FFF78C
:102A5000BDFE034618460837BD4680BD80B500AFB1
:102A60000248FFF7E1FF0346184680BD00280140F9
:102A700080B500AF0248FFF7D7FF0346184680BD78
:102A80000024014080B500AF0248FFF7CDFF0346A8
:102A9000184680BD003C014080B500AF0A48FFF7F2
:102AA00067FF09480121FFF79DFF0848FFF760FF16
:102AB00006480321FFF796FF0548FFF759FF044832
:102AC0000221FFF78FFF80BD002401400028014054
:102AD000003C014080B500AFFFF7CAFF0246064B3D
:102AE0001A60FFF7BBFF0246044B1A60FFF7CAFFEC
:102AF0000246034B1A6080BD880500209405002023
:102B00008C05002080B582B000AF0346FB71FB79D5
:102B100003F00103002B05D038484FF48051FDF736
:102B200073FE04E035484FF48051FDF77BFEFB79DE
:102B300003F00203002B04D031480421FDF764FEAA
:102B400003E02F480421FDF76DFEFB7903F0040339
:102B5000002B04D02B480821FDF756FE03E029483E
:102B60000821FDF75FFEFB7903F00803002B04D07A
:102B700024481021FDF748FE03E022481021FDF70C
:102B800051FEFB7903F01003002B04D01D482021D7
:102B9000FDF73AFE03E01B482021FDF743FEFB79D9
:102BA00003F02003002B04D016484021FDF72CFE33
:102BB00003E014484021FDF735FEFB7903F04003A4
:102BC000002B04D00F488021FDF71EFE03E00D48C6
:102BD0008021FDF727FEFB795BB2002B05DA074861
:102BE0004FF40051FDF710FE04E004484FF400518B
:102BF000FDF718FE0837BD4680BD00BF001001403C
:102C000000140140000C014080B500AF1C484FF497
:102C10000041FDF76DFC1B484FF48061FDF768FC37
:102C200018484FF40061FDF763FC16484FF48051DB
:102C3000FDF75EFC14480421FDF75AFC13480821F7
:102C4000FDF756FC11481021FDF752FC0F482021DA
:102C5000FDF74EFC0D484021FDF74AFC0B48802152
:102C6000FDF746FC07484FF40051FDF741FC0748CB
:102C70000421FDF7D7FD05480421FDF739FC80BD8F
:102C8000000801400010014000140140000C014008
:102C900080B584B000AF78600023FB6012E00D487F
:102CA0000421FDF7B1FD4FF4FA70FFF7E9FD094883
:102CB0000421FDF7B7FD4FF4FA70FFF7E1FDFB6863
:102CC0000133FB60FA687B689A42E8DB1037BD4647
:102CD00080BD00BF000C014080B500AF6420FFF74D
:102CE000D7FF80BD80B500AF2320FFF7C9FD80BDB1
:102CF00080B500AF0A20FFF7C3FD80BD80B582B06C
:102D000000AF0346FB7118484FF48061FDF78AFD60
:102D1000FFF7EEFFFB791846FFF7F4FEFFF7E8FF39
:102D200011484FF40061FDF76FFDFFF7E1FF0E481A
:102D30004FF40061FDF776FDFFF7DAFFFF20FFF7A4
:102D4000E1FEFFF7CFFFFB79012B09D140F6B83048
:102D5000FFF796FD054B00221A60054B00221A6012
:102D60000837BD4680BD00BF00100140A00500200F
:102D7000A405002080B582B000AF0346FB71184B5C
:102D80001A68184B1B689A4200DB26E016484FF47D
:102D90008061FDF739FDFFF7ABFFFB79134AD35C88
:102DA0001846FFF7AFFEFFF7A3FF0F484FF400618F
:102DB000FDF72AFDFFF79CFF0B484FF40061FDF77C
:102DC00031FDFFF795FFFF20FFF79CFEFFF78AFF1D
:102DD000034B1B680133024A13600837BD4680BDB0
:102DE000A40500209C05002000100140305100087F
:102DF00080B582B000AF7860214B14221A60214B5D
:102E000000221A60204B00221A60204B00221A6018
:102E10001F4B4FF448721A601E4B00221A60FFF7D6
:102E2000F3FE1D484FF48061FDF7FCFC1A484FF497
:102E30008061FDF7E9FCFF20FFF764FE16484FF4C0
:102E40008061FDF7EFFC14484FF48061FDF7DCFC76
:102E50003820FFF753FF4FF47A70FFF711FD0C2075
:102E6000FFF74CFF4FF47A70FFF70AFD0120FFF7E0
:102E700045FF0620FFF742FF0837BD4680BD00BF73
:102E80009C050020A0050020A4050020A805002026
:102E900098050020AC0500200010014080B582B0EC
:102EA00000AF0346FB71FB79002B05D106484FF4B8
:102EB0000041FDF7A9FC04E003484FF40041FDF791
:102EC000B1FC0837BD4680BD0008014080B582B026
:102ED00000AF00237B6000F017F878607B68002B60
:102EE000F9D04CF25030FFF7CBFC00BF00F00CF8EB
:102EF0000346002BFAD14CF25030FFF7C1FC7B683F
:102F000018460837BD4680BD80B584B000AF0023A9
:102F1000FB600123BB601D484FF40061FDF782FC9C
:102F2000FF20FFF7EFFD6420FFF7AAFC17484FF4DE
:102F30008041FDF74FFC0346002B01D1FB6820E0E8
:102F400000237B6019E0BB68DBB21846FFF7DAFDAF
:102F50006420FFF795FC0D484FF48041FDF73AFCE3
:102F60000346002B03D0FA68BB681343FB60BB68C1
:102F70005B00BB607B6801337B607B68072BE2DD15
:102F8000FB6818461037BD4680BD00BF00100140E9
:102F900080B582B000AFFFF7B7FF7860134B1A68B7
:102FA0007B689A420DD1124B1B680133104A1360A3
:102FB0000E4A7B6813600E4B1B68B3F5FA7F0FDD7A
:102FC00007E00B4B00221A60084A7B6813607B689D
:102FD00007E0074B1B68C83B054A13607B6800E0AD
:102FE000002318460837BD4680BD00BF7C05002081
:102FF0008005002080B500AF0120FFF77FFE022092
:10300000FFF77CFE80BD00BF80B584B000AF0346F3
:103010000A46FB711346BB71FB790A4AD25CBB7945
:103020001344FB73FB7B63F07F03DBB21846FFF7AF
:1030300065FEFB79044A1360BB79044A13601037BC
:10304000BD4680BD1C510008A0050020A40500203D
:1030500080B584B000AF78600023FB6009E0FB68B6
:103060007A6813441B781846FFF784FEFB68013327
:10307000FB60FB68132B0BDCFB687A6813441B783E
:10308000002B05D0044B1A68044B1B689A42E6DB00
:103090001037BD4680BD00BFA40500209C05002060
:1030A00080B582B000AF0346FB71FB791846FFF78D
:1030B00061FE0837BD4680BD80B586B000AF786040
:1030C00000237B617B68002B05DA2D20FFF752FE81
:1030D0007B685B427B607B68002B03D13020FFF76D
:1030E00049FE37E021E07B683B617B681B4A82FB3D
:1030F00003129210DB17D31A7B607B68DBB21A468F
:103100005201D21A9200D31A5B00DAB23B69DBB2E9
:103110001344DBB23033D9B207F108027B691344A0
:103120000A461A707B6901337B617B68002BDADC0D
:103130007B69013B7B610AE007F108027B6913446C
:103140001B781846FFF716FE7B69013B7B617B69A4
:10315000002BF1DA1837BD4680BD00BF6766666692
:1031600080B586B000AF786039603B68002B03D132
:103170007868FFF7A1FF6BE000237B6100233B61D0
:103180007B68002B05DA3448FFF762FF7B685B42FF
:103190007B607B687B610023FB600AE07B692F4AD0
:1031A00082FB03129210DB17D31A7B61FB68013399
:1031B000FB60FA683B689A42F0DB7869FFF77CFFB6
:1031C0007B693B610023FB6008E03A6913469B0082
:1031D00013445B003B61FB680133FB60FA683B68AA
:1031E0009A42F2DB7A683B69D31A3B613B69002B58
:1031F0001EDD1B48FFF72CFF3B68022B05D13B6906
:10320000092B02DC1748FFF723FF3B68032B0BD188
:103210003B69632B02DC1348FFF71AFF3B69092B5C
:1032200002DC1048FFF714FF3869FFF745FF0FE095
:103230000D48FFF70DFF0023FB6005E00A48FFF78C
:1032400007FFFB680133FB60FA683B689A42F5DBD5
:103250001837BD4680BD00BF20510008676666660E
:1032600024510008285100082C51000880B582B074
:1032700000AF78607B681B7B002B09D07B681A68E5
:103280007B685B689BB210461946FDF7BDFA08E003
:103290007B681A687B685B689BB210461946FDF72D
:1032A000C1FA0837BD4680BD80B582B000AF7860F6
:1032B0007B681B7B002B09D07B681A687B685B6886
:1032C0009BB210461946FDF7ADFA08E07B681A6814
:1032D0007B685B689BB210461946FDF795FA083784
:1032E000BD4680BD80B582B000AF78607B685B680A
:1032F0009AB20A4B1A80094B1022DA70074B03224C
:103300009A707B681B6818460449FDF7A3F9786832
:10331000FFF7CAFF0837BD4680BD00BF90050020FB
:1033200080B582B000AF78600B46FB70FB78002B55
:1033300007D17B681B01084A13441846FFF7B4FF06
:1033400006E07B681B01044A13441846FFF78EFF12
:103350000837BD4680BD00BF1C00002080B582B08C
:1033600000AF0346FB71FB79002B05D00648022114
:103370000222FDF739F904E0034802210022FDF79B
:1033800033F90837BD4680BD0010014080B582B0DA
:1033900000AF00237B6009E07B681B01154A1344E2
:1033A0001846FFF79FFF7B6801337B607B68072B24
:1033B000F2DD114801210022FDF716F90E48022125
:1033C0000022FDF711F90C480121FDF791F80A4898
:1033D0000221FDF78DF809484FF480714FF4807297
:1033E000FDF702F905484FF48071FDF7D1F8083771
:1033F000BD4680BD1C0000200010014000140140AB
:1034000080B487B000AF786000237B610123FB604C
:1034100000233B611BE0164A3B691B011344083340
:103420001A687B689A420CDC7A69FB6813437B61FB
:103430000F4A3B691B01134408331B687A68D31A8F
:103440007B60FB685B00FB603B6901333B613B6970
:10345000072BE0DD7B68002B01D17B6901E04FF099
:10346000FF3318461C37BD465DF8047B704700BF2C
:103470001C00002080B584B000AF78600023FB60A2
:1034800023E0154AFB681B01134408331A687B6864
:103490009A4210DC104AFB681B01134408331B6876
:1034A0007A68D31A7B60FB681B010B4A13441846E9
:1034B000FFF7DCFE06E0FB681B01074A13441846D1
:1034C000FFF7F2FEFB680133FB60FB68072BD8DDDA
:1034D0001037BD4680BD00BF1C00002080B500AF86
:1034E000094802210022FDF77FF807480121012247
:1034F000FDF77AF84FF47A70FFF7C2F9024801211C
:103500000022FDF771F880BD0010014090B58FB02A
:1035100000AFF860B9607A603B603868764900F0C7
:10352000A5FD0346184600F0F1FE0346002B00DA25
:1035300003339B103B6200233B631423FB616F4802
:1035400002210222FDF750F84FF49670FFF798F928
:103550000023FB620BE0FFF705FAFFF7BBFA684BAD
:103560001B683A6B13443B63FB6A0133FB62FB6AE3
:103570000F2BF0DD3B6B634A82FB03121A44D2101F
:10358000DB17D31A3B63604B1B6801335E4A136041
:103590005B4B1B68BB61FB681B681846FFF76AFF43
:1035A000FFF7E0F9FFF796FA584B1B68B3F5617F18
:1035B00015DA574B1B68B3F5617F10DD0020FFF76C
:1035C00059FF544A544B144607CB20606160A260F7
:1035D0001B88A3815148FFF753F9002387E0BB699B
:1035E00096337B61454802210022FCF7FDFF4348EA
:1035F00001210122FCF7F8FF1E20FFF741F93F48A7
:1036000001210022FCF7F0FFFFF7ACF90023BB62B9
:103610000CE0FFF75FFA3A4B1A687B699A4200DDCB
:1036200007E0FFF79FF9BB6A0133BB62BB6A012B5E
:10363000EFDD324801210022FCF7D6FF2F4801219F
:103640000022FCF7D1FF01233B61FFF70FF903468E
:103650007B6200237B631DE07B6B9B00FA68134455
:103660001B68002B0CD07B6B9B00FA6813441B6813
:103670001846FFF7FFFE7A6A3B6A13447B6200E05C
:103680000CE0FFF7F3F802467B6A9A42F9D37B6BB2
:1036900001337B637A6BBB689A42DDDB0020FFF766
:1036A000E9FE3B6B05333B637B681D4A82FB0312DB
:1036B0009210DB17D31A7A68D31A7B6003E0FFF706
:1036C00051F9FFF707FAFFF7D1F802467B689A42F3
:1036D00004D20B4B1A683B6B9A42F0DC3B69002B1F
:1036E00004DC104B1B6801330E4A13603B6918461B
:1036F0003C37BD4690BD00BF0038C74900100140AF
:103700008C05002089888888B00500209405002059
:1037100088050020C40500203052000820A10700C1
:1037200067666666C005002081F0004102E000BFC8
:1037300083F0004330B54FEA41044FEA430594EA71
:10374000050F08BF90EA020F1FBF54EA000C55EAAC
:10375000020C7FEA645C7FEA655C00F0E2804FEA7D
:103760005454D4EB5555B8BF6D420CDD2C4480EA5F
:10377000020281EA030382EA000083EA010180EA8F
:10378000020281EA0303362D88BF30BD11F0004FDD
:103790004FEA01314FF4801C4CEA113102D0404213
:1037A00061EB410113F0004F4FEA03334CEA13334E
:1037B00002D0524263EB430394EA050F00F0A78066
:1037C000A4F10104D5F1200E0DDB02FA0EFC22FA61
:1037D00005F2801841F1000103FA0EF2801843FA55
:1037E00005F359410EE0A5F120050EF1200E012A46
:1037F00003FA0EFC28BF4CF0020C43FA05F3C01884
:1038000051EBE37101F0004507D54FF0000EDCF1FC
:10381000000C7EEB00006EEB0101B1F5801F1BD3A5
:10382000B1F5001F0CD349085FEA30004FEA3C0CA9
:1038300004F101044FEA445212F5800F80F09A809F
:10384000BCF1004F08BF5FEA500C50F1000041EBA3
:10385000045141EA050130BD5FEA4C0C404141EBA7
:10386000010111F4801FA4F10104E9D191F0000FCE
:1038700004BF01460020B1FA81F308BF2033A3F151
:103880000B03B3F120020CDA0C3208DD02F1140C48
:10389000C2F10C0201FA0CF021FA02F10CE002F183
:1038A0001402D8BFC2F1200C01FA02F120FA0CFC7C
:1038B000DCBF41EA0C019040E41AA2BF01EB0451C5
:1038C000294330BD6FEA04041F3C1CDA0C340EDCC3
:1038D00004F11404C4F1200220FA04F001FA02F306
:1038E00040EA030021FA04F345EA030130BDC4F1C4
:1038F0000C04C4F1200220FA02F001FA04F340EAB9
:103900000300294630BD21FA04F0294630BD94F069
:10391000000F83F4801306BF81F480110134013D50
:103920004EE77FEA645C18BF7FEA655C29D094EAC1
:10393000050F08BF90EA020F05D054EA000C04BF3F
:103940001946104630BD91EA030F1EBF002100202A
:1039500030BD5FEA545C05D14000494128BF41F0C9
:10396000004130BD14F580043CBF01F5801130BD2D
:1039700001F0004545F0FE4141F470014FF00000B8
:1039800030BD7FEA645C1ABF194610467FEA655C69
:103990001CBF0B46024650EA013406BF52EA03350B
:1039A00091EA030F41F4002130BD00BF90F0000FF9
:1039B00004BF0021704730B54FF4806404F1320435
:1039C0004FF000054FF0000150E700BF90F0000FEE
:1039D00004BF0021704730B54FF4806404F1320415
:1039E00010F0004548BF40424FF000013EE700BFE5
:1039F00042004FEAE2014FEA31014FEA02701FBF75
:103A000012F07F4393F07F4F81F06051704792F046
:103A1000000F14BF93F07F4F704730B54FF46074C0
:103A200001F0004521F0004120E700BF50EA01020B
:103A300008BF704730B54FF000050AE050EA0102B8
:103A400008BF704730B511F0004502D5404261EB28
:103A500041014FF4806404F132045FEA915C3FF469
:103A6000DCAE4FF003025FEADC0C18BF03325FEA02
:103A7000DC0C18BF033202EBDC02C2F1200300FAB7
:103A800003FC20FA02F001FA03FE40EA0E0021FADC
:103A900002F11444C1E600BF70B54FF0FF0C4CF4C6
:103AA000E06C1CEA11541DBF1CEA135594EA0C0F7C
:103AB00095EA0C0F00F0DEF82C4481EA030621EAB7
:103AC0004C5123EA4C5350EA013518BF52EA0335F2
:103AD00041F4801143F4801338D0A0FB02CE4FF0A4
:103AE0000005E1FB02E506F00042E0FB03E54FF0D4
:103AF0000006E1FB03569CF0000F18BF4EF0010ECC
:103B0000A4F1FF04B6F5007F64F5407404D25FEAC7
:103B10004E0E6D4146EB060642EAC62141EA55517A
:103B20004FEAC52040EA5E504FEACE2EB4F1FD0CBC
:103B300088BFBCF5E06F1ED8BEF1004F08BF5FEA3A
:103B4000500E50F1000041EB045170BD06F00046EC
:103B500046EA010140EA020081EA0301B4EB5C0499
:103B6000C2BFD4EB0C0541EA045170BD41F4801191
:103B70004FF0000E013C00F3AB8014F1360FDEBFB6
:103B8000002001F0004170BDC4F10004203C35DA92
:103B90000C341BDC04F11404C4F1200500FA05F315
:103BA00020FA04F001FA05F240EA020001F00042B6
:103BB00021F0004110EBD37021FA04F642EB06012C
:103BC0005EEA430E08BF20EAD37070BDC4F10C0456
:103BD000C4F1200500FA04F320FA05F001FA04F21A
:103BE00040EA020001F0004110EBD37041F1000106
:103BF0005EEA430E08BF20EAD37070BDC4F1200511
:103C000000FA05F24EEA020E20FA04F301FA05F278
:103C100043EA020321FA04F001F0004121FA04F220
:103C200020EA020000EBD3705EEA430E08BF20EAF0
:103C3000D37070BD94F0000F0FD101F0004640002A
:103C400041EB010111F4801F08BF013CF7D041EAAC
:103C5000060195F0000F18BF704703F000465200B0
:103C600043EB030313F4801F08BF013DF7D043EA81
:103C70000603704794EA0C0F0CEA135518BF95EA37
:103C80000C0F0CD050EA410618BF52EA4306D1D1BE
:103C900081EA030101F000414FF0000070BD50EADD
:103CA000410606BF1046194652EA430619D094EA67
:103CB0000C0F02D150EA013613D195EA0C0F05D151
:103CC00052EA03361CBF104619460AD181EA0301A5
:103CD00001F0004141F0FE4141F470014FF000005D
:103CE00070BD41F0FE4141F4780170BD70B54FF0F8
:103CF000FF0C4CF4E06C1CEA11541DBF1CEA135578
:103D000094EA0C0F95EA0C0F00F0A7F8A4EB050459
:103D100081EA030E52EA03354FEA013100F0888050
:103D20004FEA03334FF0805545EA131343EA126319
:103D30004FEA022245EA111545EA10654FEA0026CE
:103D40000EF000419D4208BF964244F1FD0404F587
:103D5000407402D25B084FEA3202B61A65EB0305E3
:103D60005B084FEA32024FF480104FF4002CB6EBA0
:103D7000020E75EB030E22BFB61A754640EA0C0020
:103D80005B084FEA3202B6EB020E75EB030E22BF60
:103D9000B61A754640EA5C005B084FEA3202B6EBA1
:103DA000020E75EB030E22BFB61A754640EA9C0060
:103DB0005B084FEA3202B6EB020E75EB030E22BF30
:103DC000B61A754640EADC0055EA060E18D04FEAEE
:103DD000051545EA16754FEA06164FEAC30343EA8E
:103DE00052734FEAC2025FEA1C1CC0D111F4801F5B
:103DF0000BD141EA00014FF000004FF0004CB6E754
:103E000011F4801F04BF01430020B4F1FD0C88BFF2
:103E1000BCF5E06F3FF6AFAEB5EB030C04BFB6EBFD
:103E2000020C5FEA500C50F1000041EB045170BDF0
:103E30000EF0004E4EEA113114EB5C04C2BFD4EB1D
:103E40000C0541EA045170BD41F480114FF0000EA1
:103E5000013C90E645EA060E8DE60CEA135594EA1D
:103E60000C0F08BF95EA0C0F3FF43BAF94EA0C0F20
:103E70000AD150EA01347FF434AF95EA0C0F7FF495
:103E800025AF104619462CE795EA0C0F06D152EAE9
:103E900003353FF4FDAE1046194622E750EA4106CD
:103EA00018BF52EA43067FF4C5AE50EA41047FF4DE
:103EB0000DAF52EA43057FF4EBAE12E74FF0FF3C43
:103EC00006E000BF4FF0010C02E000BF4FF0010C14
:103ED0004DF804CD4FEA410C7FEA6C5C4FEA430C8D
:103EE00018BF7FEA6C5C1BD001B050EA410C0CBFDC
:103EF00052EA430C91EA030F02BF90EA020F00203E
:103F0000704710F1000F91EA030F58BF994208BFA4
:103F100090422CBFD8176FEAE37040F00100704761
:103F20004FEA410C7FEA6C5C02D150EA013C07D1B8
:103F30004FEA430C7FEA6C5CD6D152EA033CD3D003
:103F40005DF8040B704700BF8446104662468C46FD
:103F50001946634600E000BF01B5FFF7B7FF002830
:103F600048BF10F1000F01BD4DF808EDFFF7F4FF59
:103F70000CBF012000205DF808FB00BF4DF808EDE4
:103F8000FFF7EAFF34BF012000205DF808FB00BF07
:103F90004DF808EDFFF7E0FF94BF012000205DF829
:103FA00008FB00BF4DF808EDFFF7CEFF94BF0120DE
:103FB00000205DF808FB00BF4DF808EDFFF7C4FFD7
:103FC00034BF012000205DF808FB00BF4FEA41022A
:103FD000B2F1E04324BFB3F5001CDCF1FE5C0DD967
:103FE00001F0004C4FEAC0024CEA5070B2F1004FB1
:103FF00040EB830008BF20F00100704711F0804FB4
:1040000021D113F13872BCBF01F00040704741F478
:1040100080114FEA5252C2F11802C2F1200C10FA7C
:104020000CF320FA02F018BF40F001004FEAC12360
:104030004FEAD32303FA0CFC40EA0C0023FA02F304
:104040004FEA4303CCE77FEA625307D150EA0133DA
:104050001EBF4FF0FE4040F44000704701F00040AA
:1040600040F0FE4040F40000704700BF4FF0FF0CEE
:104070001CEAD0521EBF1CEAD15392EA0C0F93EAFD
:104080000C0F6FD01A4480EA010C400218BF5FEA9F
:1040900041211ED04FF0006343EA501043EA511112
:1040A000A0FB01310CF00040B1F5000F3EBF49000C
:1040B00041EAD3715B0040EA010062F17F02FD2A10
:1040C0001DD8B3F1004F40EBC25008BF20F00100F3
:1040D000704790F0000F0CF0004C08BF49024CEA0A
:1040E000502040EA51207F3AC2BFD2F1FF0340EA9C
:1040F000C250704740F400004FF00003013A5DDC0D
:1041000012F1190FDCBF00F000407047C2F100024D
:10411000410021FA02F1C2F1200200FA02FC5FEA3A
:10412000310040F1000053EA4C0308BF20EADC7084
:10413000704792F0000F00F0004C02BF400010F4F6
:10414000000F013AF9D040EA0C0093F0000F01F0A3
:10415000004C02BF490011F4000F013BF9D041EAC5
:104160000C018FE70CEAD15392EA0C0F18BF93EAC7
:104170000C0F0AD030F0004C18BF31F0004CD8D1F1
:1041800080EA010000F00040704790F0000F17BF78
:1041900090F0004F084691F0000F91F0004F14D0BE
:1041A00092EA0C0F01D142020FD193EA0C0F03D116
:1041B0004B0218BF084608D180EA010000F0004019
:1041C00040F0FE4040F40000704740F0FE4040F4F4
:1041D000400070474FF0FF0C1CEAD0521EBF1CEA93
:1041E000D15392EA0C0F93EA0C0F69D0A2EB0302B1
:1041F00080EA010C49024FEA402037D04FF080534B
:1042000043EA111143EA10130CF000408B4238BF0F
:104210005B0042F17D024FF4000C8B4224BF5B1A1D
:1042200040EA0C00B3EB510F24BFA3EB510340EA6B
:104230005C00B3EB910F24BFA3EB910340EA9C0019
:10424000B3EBD10F24BFA3EBD10340EADC001B0189
:1042500018BF5FEA1C1CE0D1FD2A3FF650AF8B422D
:1042600040EBC25008BF20F0010070470CF0004C3A
:104270004CEA50207F32C2BFD2F1FF0340EAC25065
:10428000704740F400004FF00003013A37E792F026
:10429000000F00F0004C02BF400010F4000F013A84
:1042A000F9D040EA0C0093F0000F01F0004C02BF7F
:1042B000490011F4000F013BF9D041EA0C0195E7E8
:1042C0000CEAD15392EA0C0F08D142027FF47DAF81
:1042D00093EA0C0F7FF470AF084676E793EA0C0F71
:1042E00004D14B023FF44CAF08466EE730F0004C6F
:1042F00018BF31F0004CCAD130F000427FF45CAFFF
:1043000031F000437FF43CAF5FE700BF4FEA40026B
:10431000B2F1FE4F0FD34FF09E03B3EB12620DD9F3
:104320004FEA002343F0004310F0004F23FA02F05D
:1043300018BF404270474FF00000704712F1610F04
:1043400001D1420205D110F0004008BF6FF00040DB
:1043500070474FF0000070477BB972B90029BEBFAB
:1043600000204FF0004106E008BF00281CBF6FF09E
:1043700000414FF0FF3000F03BB882B0EC462DE931
:10438000005000F005F8DDF804E002B00CBC704706
:104390002DE9F041069C904606460F461D4600F06A
:1043A00029F808FB01FCA8FB002300FB05C5B21A95
:1043B0002B4467EB03038646C4E90023BDE8F08184
:1043C0002DE9F843089E1746804689461D4600F0B1
:1043D00067F900FB05F3A0FB074507FB0137B8EBC6
:1043E00004043D4469EB0505C6E90045BDE8F883D2
:1043F000704700BF00292DE9F043C0F2A8800026D5
:10440000002BC0F29E8081468E4690469C46174601
:1044100004460D46002B3DD18A4259D9B2FA82F3A7
:104420003BB1C3F120029D4020FA02F29F401543A8
:104430009C40390CB5FBF1F01FFA87FE01FB1055CB
:104440000EFB00F3220C42EA0545AB4209D9ED19F7
:1044500000F1FF3280F00B81AB4240F2088102385C
:104460003D44ED1AB5FBF1F301FB13550EFB03FEC2
:10447000A4B244EA0545AE4508D9ED1903F1FF326F
:1044800080F0F780AE4540F2F480023B43EA0043FF
:10449000002203E08B420FD900221346341C18BFC0
:1044A000012460424FF0000565EB45015840514042
:1044B00000196941BDE8F083B3FA83F2002A40F0A5
:1044C00089808B4202D3804500F2E2800123E5E738
:1044D00012B90123B3FBF2F7B7FA87F8B8F1000F6E
:1044E0003BD1ED1B4FEA174C1FFA87FE0122B5FBAB
:1044F000FCF00CFB10550EFB00F3210C41EA0545C6
:10450000AB4207D9ED1900F1FF3102D2AB4200F204
:10451000C3800846ED1AB5FBFCF30CFB13550EFBEC
:1045200003FEA4B244EA0545AE4507D9ED1903F1EF
:10453000FF3102D2AE4500F2AD800B4643EA0043A4
:10454000ACE752426FEA060663EB43035BE7404287
:1045500061EB41014FF0FF3652E707FA08F7C8F167
:10456000200225FA02F34FEA174CB3FBFCF11FFAC5
:1045700087FE0CFB113324FA02F205FA08F50EFB54
:1045800001F92A43100C40EA0343994504FA08F460
:1045900007D9DB1901F1FF3078D2994576D9023974
:1045A0003B44C9EB0303B3FBFCF00CFB10330EFBE5
:1045B00000F592B242EA03439D4207D9DB1900F1AC
:1045C000FF325FD29D425DD902383B445D1B40EA19
:1045D00001428CE7C2F1200328FA03F10CFA02FC35
:1045E00041EA0C0C4FEA1C402EFA03F1B1FBF0F546
:1045F0001FFA8CF700FB151129FA03F30EFA02FEDD
:1046000007FB05F943EA0E0E4FEA1E4343EA014158
:10461000894508FA02F808D911EB0C0105F1FF33BE
:1046200032D2894530D9023D6144C9EB0101B1FB69
:10463000F0F300FB131107FB03F71FFA8EFE4EEA9F
:10464000014E774508D91EEB0C0E03F1FF3117D24E
:10465000774515D9023BE64443EA0543A3FB0889A5
:10466000C7EB0E0ECE4509D305D0002216E7104643
:10467000F7E613460AE794404445F6D2013BF4E7D7
:104680000B46E9E71046A1E71D46CEE7014688E75D
:10469000134603E7023B51E702383D443AE700BFC7
:1046A0002DE9F043002B44D18A42154604464FD9E8
:1046B000B2FA82F70E464FB1C7F12003B94020FA93
:1046C00003F602FA07F50E4300FA07F42F0CB6FBC7
:1046D000F7F01FFA85FE07FB10620EFB00F1260CB7
:1046E00046EA0243994209D95B1900F1FF3280F092
:1046F000EE80994240F2EB8002382B44591AB1FB0C
:10470000F7F307FB13110EFB03FEA4B244EA0141C9
:104710008E4508D9491903F1FF3280F0DA808E45C1
:1047200040F2D780023B43EA004000263146BDE814
:10473000F0838B4247D8B3FA83F6002E48D18B42E0
:1047400002D3824200F2CF8001203146BDE8F083DF
:1047500012B90125B5FBF2F5B5FA85FCBCF1000FE5
:1047600078D1491B2F0C1FFA85FE0126B1FBF7F00B
:1047700007FB10110EFB00F2230C43EA01418A42B1
:1047800007D9491900F1FF3302D28A4200F2BC80F6
:104790001846891AB1FBF7F307FB13110EFB03FE52
:1047A000A4B244EA0142964508D9521903F1FF31F7
:1047B00080F09180964540F28E80023B43EA0040B3
:1047C0003146BDE8F083002630463146BDE8F0832F
:1047D000C6F1200422FA04F5B3402B4321FA04F772
:1047E0004FEA1348B7FBF8FC1FFA83F908FB1C7764
:1047F00020FA04FE01FA06F509FB0CF44EEA050561
:104800004FEA154E4EEA0747BC4202FA06F204D9B7
:10481000FF180CF1FF3168D38C463F1BB7FBF8F44F
:1048200008FB147709FB04F9ADB245EA0741894555
:1048300004D9C91804F1FF355DD32C4644EA0C4471
:10484000A4FB0223C9EB0101994249D345D020467C
:1048500000266BE7CCF1200405FA0CF521FA04F3ED
:104860002A0CB3FBF2F61FFA85FE02FB163820FA7B
:1048700004F701FA0CF10EFB06F90F433C0C44EA75
:104880000843994500FA0CF407D95B1906F1FF318A
:1048900038D2994536D9023E2B44C9EB0303B3FB0A
:1048A000F2F002FB10330EFB00F1BFB247EA034304
:1048B000994207D95B1900F1FF3721D299421FD9DC
:1048C00002382B441746591A40EA06464EE710466E
:1048D00014E7134627E70B4670E7B0409042B6D284
:1048E000601E002622E7304620E7BC4294D9ACF196
:1048F000020C1F4491E789459FD9023C19449DE76A
:104900003846DFE70E46C8E70238294441E700BFD2
:10491000024B13B1024800F005B8704700000000D8
:1049200031490008014600200246034600F016B84F
:1049300038B5084B084DED1AAC1018BFED1805D06E
:10494000013C55F8043D9847002CF9D1BDE83840AA
:1049500000F05CB8D0040020D40400202DE9F0471A
:10496000254C064625688846D5F848419246994622
:10497000C4B360681F2817DC411C76B104EB8003C8
:10498000C3F888A0D4F88851012282401543022E32
:10499000C4F88851C3F808911ED0831C61600020C0
:1049A00044F82380BDE8F087144B03B34FF4C8707C
:1049B000AFF300800446D0B1D5F84831002784E831
:1049C00088003846C5F848410121C4F88871C4F808
:1049D0008C71002EE1D0D1E7D4F88C311A43C4F8A1
:1049E0008C21DAE705F5A674C5F84841C1E74FF018
:1049F000FF30BDE8F08700BF44520008000000000F
:104A0000F8B500BFF8BC08BC9E467047F8B500BFBB
:104A1000F8BC08BC9E4670477370656374726F6D16
:104A2000657465722E636F6D2E756100D6D3C320D9
:104A300000000000D6000000D3C32000D3200000F7
:104A4000C3000000F4F0EEE2EEE90000EDE8E2E57C
:104A5000F0F1E0EBFCEDFBE900000000E5EDE5F036
:104A6000E0F2EEF00000000056657233322E3200A4
:104A7000D1F2E0EDE4E0F0F2EDFBE520F0E5E6E870
:104A8000ECFB3A000000000020312ECFF0E8E2FFFE
:104A9000E7EAE00020322EC8F1EAF0E020E6E5F196
:104AA000F2EAE0FF0000000020332EC8F1EAF0E057
:104AB00020ECFFE3EAE0FF0020342EC4F3E3E02023
:104AC00034C0000020352EC4F3E3E0203130C000B4
:104AD00020362EC4F3E3E0203136C000CFF0EEE8FC
:104AE000E7E2EEEBFCEDFBE920F0E5E6E8EC0000A8
:104AF000202049313D000000412831323520ECEAC8
:104B0000F1290000202049323D00000041283235C3
:104B10003020ECEAF1290000202049333D0000005C
:104B2000412833373520ECEAF129000020204934B0
:104B30003D000000412835303020ECEAF12900002A
:104B40002046203D00000000C3F600002054203D18
:104B5000000000007573000020CEE1E4F3E22000C5
:104B60007428F1E5EA29000020CEE1E6E8E3200020
:104B7000F1E5EA002020493D00000000C3EEF2EE1E
:104B8000E220EA20F0E0E1EEF2E500004E6F205373
:104B90007061726B20436865636B20004E6F204725
:104BA000415320436865636B200000004E6F205026
:104BB000524F5420436865636B200000704A000820
:104BC000844A00080000000000000000000000000F
:104BD00000000000FFFFFFFF00000000884A0008FF
:104BE000844A00080000000000000000FFFFFFFFF3
:104BF000FFFFFFFF00000000FFFFFFFF944A0008D7
:104C0000844A00080000000000000000FFFFFFFFD2
:104C1000FFFFFFFF00000000FFFFFFFFA84A0008A2
:104C2000844A00080000000000000000FFFFFFFFB2
:104C3000FFFFFFFF00000000FFFFFFFFB84A000872
:104C4000844A00080000000000000000FFFFFFFF92
:104C5000FFFFFFFF00000000FFFFFFFFC44A000846
:104C6000844A00080000000000000000FFFFFFFF72
:104C7000FFFFFFFF00000000FFFFFFFFD04A00081A
:104C8000844A00080000000000000000FFFFFFFF52
:104C9000FFFFFFFF00000000FFFFFFFFDC4A0008EE
:104CA000844A00080000000000000000000000002E
:104CB00000000000FFFFFFFF00000000F04A0008B6
:104CC000F84A0008000000001C020000010000007B
:104CD0001400000014000000FFFFFFFF044B000859
:104CE0000C4B0008000000001C0200000100000046
:104CF0001400000000000000FFFFFFFF184B000839
:104D0000204B0008000000001C0200000100000011
:104D10001400000000000000FFFFFFFF2C4B000804
:104D2000344B0008000000001C02000001000000DD
:104D30001400000000000000FFFFFFFF404B0008D0
:104D4000484B000819000000580200000000000055
:104D50001900000064000000FFFFFFFF4C4B00083B
:104D6000544B000819000000580200000000000029
:104D70001900000058020000FFFFFFFF584B000819
:104D8000604B000800000000C800000001000000A7
:104D90000A00000028000000FFFFFFFF684B00082A
:104DA000704B0008000000005802000001000000E5
:104DB0000A00000000000000FFFFFFFF744B000826
:104DC000344B0008000000001C020000010000003D
:104DD000140000001C020000FFFFFFFF7C4B0008D6
:104DE000FFFFFFFFFFFFFFFFFFFFFFFFFFFFFFFFD3
:104DF000FFFFFFFFFFFFFFFFFFFFFFFF8C4B0008E0
:104E0000844A0008000000000100000000000000CB
:104E10000100000000000000000000009C4B0008A2
:104E2000844A0008000000000100000000000000AB
:104E3000010000000000000001000000AC4B000871
:104E4000844A00080000000001000000000000008B
:104E5000010000000000000002000000D3F1F2E0B9
:104E6000EDEEE2E8F2FC00003F0000005BE6E5EB5F
:104E7000F2E0FF202D20E4E0205D00005BE4F0F391
:104E8000E3E8E5202D20EDE5F25D0000D3F1F2E04E
:104E9000EDEEE2EBE5EDEE2100000000CEF2ECE5F8
:104EA000EDE5EDEE2E2E2E00CFF0E8E2FFE7EAE092
:104EB00000000000C8F1EAF0E020E6E5F1F2EAE0E7
:104EC000FF000000C8F1EAF0E020ECFFE3EAE0FFB9
:104ED00000000000C4F3E3E02034C000C4F3E3E0CA
:104EE000203130C000000000C4F3E3E0203136C0C0
:104EF00000000000D0E5E6E8EC20EEF2EBE0E4EAAA
:104F0000E8000000CEE6E8E4E0EDE8E5000000009F
:104F1000E2EAEBFEF7E5EDE8FF20EFE8F2E0EDE88E
:104F2000FF0000002020202020202000CFF0EEE213
:104F3000E5F0EAE000000000CAEBFEF7E5E900005A
:104F4000C6E4E5EC20E7E0EAF0FBF2E8FF202020F1
:104F500020202020202020202020202000000000D1
:104F60002020202020202020202020202020202041
:104F700020202020202020202020202000000000B1
:104F8000CAEBFEF72023000020CEC1D0DBC22121D6
:104F900021212100202D204F6B000000C7E0F9E8FF
:104FA000F2E00000D8F2E0F2E8E2E000CA20EFF31D
:104FB000F1EAF300EDE520E3EEF2EEE2000000009E
:104FC000CDE520E7E0E4E0EDE020F7E0F1F2EEF2FD
:104FD000E0000000CDE520E7E0E4E0EDEE20E2F0C7
:104FE000E5ECFF00CDE520E7E0E4E0EDFB20F2EEAC
:104FF000EAE80000CFF0EEE4F3E2EAE02E2E2E0025
:10500000F1E5EA2E00000000D1D2CECF0000000072
:1050100020202000D0C0C7D0DFC4210058000000ED
:1050200020415B00200000005D000000487A000085
:10503000CED2CAD0DBD220D8D2C0D2C8C221000082
:10504000CEF8E8E1EAE0280069676E290000000078
:105050004F76657274696D65000000004920E4EECA
:10506000F1F2E8E3EDF3F2200000000020F0E0E7C9
:1050700000000000537461743A0000002F0000002B
:1050800025000000D8D2C0D2C8C220CDC520C3C5DB
:10509000D0CCC5D2C8D7C5CD21212100C7C0D9C821
:1050A000D2C020D8D2C0D2C8C2C021212100000065
:1050B000D8F2E0F2E8E220E3EEF2EEE200000000D7
:1050C000D0E5E6E8EC20E7E0EBE8EFE0EDE8FF0014
:1050D00020202020202020202020202020202020D0
:1050E00020202020000000005E2000002020000082
:1050F0003C0000003E000000732D00007620000000
:10510000207370656374726F6D657465722E636F62
:105110006D2E7561202020200000000000401454F6
:105120002D0000002E0000003000000020000000D4
:10513000000102030405060708090A0B0C0D0E0FF7
:10514000101112131415161718191A1B1C1D1E1FE7
:10515000202122232425262728292A2B2C2D2E2FD7
:10516000303132333435363738393A3B3C3D3E3FC7
:10517000404142434445464748494A4B4C4D4E4FB7
:10518000505152535455565758595A5B5C5D5E5FA7
:10519000606162636465666768696A6B6C6D6E6F97
:1051A000707172737475767778797A7B7C7D7E7F87
:1051B000808182838485868788898A8B8C8D8E8F77
:1051C000909192939495969798999A9B9C9D9E9F67
:1051D0002020202020202020A2202020202020204D
:1051E0002020202020202020B5202020202020202A
:1051F00041A042A1E045A3A4A5A64BA74D484FA8B6
:10520000504354A9AA58E1ABACE2ADAE62AFB0B125
:1052100061B2B3B4E365B6B7B8B9BABBBCBD6FBED3
:105220007063BF79E478E5C0C1E6C2C3C4C5C6C730
:10523000CAC720E220D8D2C0D2C8C2C5210000000F
:0852400043000000A000002063
:08524800ACF1FF7F0100000042
:105250001200000001000000000000000102030431
:1052600001020304060708090204060800080140B9
:105270001000000050000000010000000008014084
:105280002000000050000000010000000008014064
:10529000400000005000000000000000001001402D
:1052A0002000000050000000000000000008014045
:1052B000800000005000000000000000000C0140D1
:1052C000010000005000000000000000001001403C
:1052D000100000002800000000000000000C014049
:1052E00002000000140000000000000000000000A8
:1052F000000000008C030020F40300205C04002068
:10530000000000000000000000000000000000009D
:10531000000000000000000000000000000000008D
:1053200000000000405200080000000000000000E3
:10533000000000000000000000000000000000006D
:10534000000000000000000000000000000000005D
:10535000000000000000000000000000000000004D
:10536000000000000000000000000000000000003D
:10537000000000000000000000000000000000002D
:10538000000000000000000000000000000000001D
:10539000000000000000000001000000000000000C
:1053A0000E33CDAB34126DE6ECDE05000B000000D1
:1053B00000000000000000000000000000000000ED
:1053C00000000000000000000000000000000000DD
:1053D00000000000000000000000000000000000CD
:1053E00000000000000000000000000000000000BD
:1057100000000000000000001149000859010008C5
:08572000350100080000000043
:0400000508000000EF
:00000001FF
