:020000040800F2
:10000000C80D0020A9040008050500080505000822
:1000100005050008050500080505000800000000AA
:1000200000000000000000000000000005050008BE
:10003000050500080000000005050008050500088A
:100040000505000805050008050500080505000868
:100050000505000805050008050500080505000858
:100060000505000805050008050500080505000848
:100070000505000805050008050500080505000838
:100080000505000805050008050500080505000828
:100090000505000805050008050500080505000818
:1000A0000505000805050008050500080505000808
:1000B00005050008050500080505000805050008F8
:1000C00005050008050500080505000805050008E8
:1000D00005050008050500080505000805050008D8
:1000E00005050008050500080505000805050008C8
:1000F00005050008050500080505000805050008B8
:1001000005050008050500080505000805050008A7
:100110000505000805050008050500080505000897
:100120000505000805050008050500080505000887
:100130005FF808F110B5054C237833B9044B13B1BF
:100140000448AFF300800123237010BDD8040020C1
:100150000000000000520008084B10B51BB1084811
:100160000849AFF300800848036803B910BD074B86
:10017000002BFBD0BDE81040184700BF0000000076
:1001800000520008DC040020D4040020000000001D
:1001900080B400AFBD465DF8047B704780B582B087
:1001A00000AF4023BB801023FB710323BB713B1DB9
:1001B0000348194600F05CFA0837BD4680BD00BF11
:1001C0000010014080B485B000AF78603960002332
:1001D000FB817B681B88FB817B682E4A934213D08E
:1001E0007B682D4A93420FD07B68B3F1804F0BD0D0
:1001F0007B682A4A934207D07B68294A934203D0FE
:100200007B68284A934208D1FB8923F07003FB8165
:100210003B685A88FB891343FB817B68224A9342DF
:100220000CD07B68214A934208D0FB8923F44073A9
:10023000FB813B68DA88FB891343FB817B68FA8981
:100240001A803B689A887B689A853B681A887B6825
:100250001A857B680F4A93420FD07B680E4A9342FF
:100260000BD07B68124A934207D07B68114A9342B5
:1002700003D07B68104A934204D13B681B7A9AB240
:100280007B681A867B6801229A821437BD465DF826
:10029000047B7047002C0140003401400004004002
:1002A00000080040000C0040001000400014004016
:1002B00000400140004401400048014080B483B048
:1002C00000AF78600B46FB70FB78002B08D07B6892
:1002D0001B889BB243F001039AB27B681A8007E047
:1002E0007B681B889BB223F001039AB27B681A805B
:1002F0000C37BD465DF8047B704700BF80B483B007
:1003000000AF78600B467B807B687A889A840C37D4
:10031000BD465DF8047B704780B483B000AF786061
:100320007B689B8C9BB218460C37BD465DF8047BFE
:10033000704700BF80B500AF154A154B1B6843F0EE
:10034000010313601249124B5A68124B13404B6061
:100350000F4A0F4B1B6823F0847323F48033136020
:100360000B4A0B4B1B6823F480231360084A084B8D
:100370005B6823F4FE035360054B4FF41F029A6041
:1003800000F00CF8044B4FF000629A6080BD00BF93
:10039000001002400000FFF800ED00E080B500AF63
:1003A00000F002F880BD00BF80B483B000AF00232E
:1003B0007B6000233B603A4A394B1B6843F480332F
:1003C0001360374B1B6803F400333B607B680133D9
:1003D0007B603B68002B03D17B68B3F5A06FF0D145
:1003E0002F4B1B6803F40033002B02D001233B602A
:1003F00001E000233B603B68012B4BD1294A294B8C
:100400001B6843F010031360264A264B1B6823F039
:1004100003031360234A234B1B6843F0020313605A
:100420001F4A1F4B5B6853601D4A1D4B5B6853603E
:100430001B4A1B4B5B6843F480635360184A184B9C
:100440005B6823F47C135360154A154B5B6843F4D7
:10045000E8135360124A124B1B6843F08073136019
:1004600000BF0F4B1B6803F00073002BF9D00C4A40
:100470000B4B5B6823F003035360094A084B5B682E
:1004800043F00203536000BF054B5B6803F00C03AD
:10049000082BF9D10C37BD465DF8047B704700BFCF
:1004A000001002400020024080B582B000AF104B27
:1004B0007B60104B3B6007E03B681A1D3A607A682E
:1004C000111D796012681A603B680B4A9342F3D39E
:1004D0000A480B494FF000028842B8BF40F8042B8D
:1004E000FADBFFF727FF00F079FC0837BD4680BD37
:1004F0000852000800000020D8040020D804002082
:10050000C809002080B400AFFEE700BF80B584B00A
:1005100000AF78600B467B807B681F4A934202D114
:100520000023FB6015E07B681C4A934202D1012343
:10053000FB600EE07B681A4A934202D10223FB6003
:1005400007E07B68174A934202D10323FB6000E077
:100550001EE0154AFB6852F823207B881340002BCD
:1005600000D015E0104AFB6852F823207B881A431C
:100570000D49FB6841F823207B883B811023FB72E7
:100580000323BB7207F108037868194600F070F87E
:100590001037BD4680BD00BF00080140000C01407F
:1005A0000010014000140140F404002080B584B024
:1005B00000AF786039603B689BB2BB811023FB734E
:1005C0000323BB7307F10C037868194600F050F859
:1005D0001037BD4680BD00BF80B584B000AF7860E5
:1005E00039603B689BB2BB812823FB730323BB7339
:1005F00007F10C037868194600F03AF81037BD4649
:1006000080BD00BF80B584B000AFF860B9607A608B
:10061000BB689AB27B689BB213409BB29BB2F868EE
:10062000194600F0FFF87B6883F47F4383F0FF03F3
:100630007B60BB689AB27B689BB213409BB29BB253
:10064000F868194600F0FCF81037BD4680BD00BFC1
:1006500080B582B000AF786039603B689BB2786843
:10066000194600F0C5F8034618460837BD4680BD58
:1006700080B489B000AF786039600023FB6100234B
:100680003B610023BB610023FB6000237B610023EF
:10069000BB603B68DB7803F00F03FB613B68DB78F2
:1006A00003F01003002B05D03B689B781A46FB69CA
:1006B0001343FB613B681B88DBB2002B44D07B6893
:1006C0001B687B610023BB6138E0BB69012202FA31
:1006D00003F3FB603B681B881A46FB6813403B61D1
:1006E0003A69FB689A4226D1BB699B00FB60FB68B4
:1006F0000F2202FA03F3BB60BB68DB437A69134045
:100700007B61FB68FA6902FA03F37A6913437B6140
:100710003B68DB78282B05D1BB6901229A407B68B6
:100720005A6108E03B68DB78482B04D1BB690122A1
:100730009A407B681A61BB690133BB61BB69072BB7
:10074000C3D97B687A691A603B681B88FF2B4AD93A
:100750007B685B687B610023BB613EE0BB6908335B
:100760001A4601239340FB603B681B881A46FB68CE
:1007700013403B613A69FB689A422BD1BB699B00ED
:10078000FB60FB680F2202FA03F3BB60BB68DB432C
:100790007A6913407B61FB68FA6902FA03F37A69AC
:1007A00013437B613B68DB78282B07D1BB69083397
:1007B0001A46012303FA02F27B685A613B68DB7830
:1007C000482B07D1BB6908331A46012303FA02F20A
:1007D0007B681A61BB690133BB61BB69072BBDD95B
:1007E0007B687A695A602437BD465DF8047B7047A0
:1007F00080B485B000AF78600B467B800023FB732C
:100800007B689A687B881340002B02D00123FB731E
:1008100001E00023FB73FB7B18461437BD465DF8EF
:10082000047B704780B483B000AF78600B467B8058
:100830007A887B681A610C37BD465DF8047B704787
:1008400080B483B000AF78600B467B807A887B6889
:100850005A610C37BD465DF8047B704780B582B0A5
:1008600000AF78600BE07B681B78184602F0F4FB61
:1008700047F2305001F0E0FF7B6801337B607B681A
:100880001B78002BEFD10837BD4680BD80B582B004
:1008900000AF002002F0DEFA47F2305001F0CCFF4A
:1008A000012002F0D7FA47F2305001F0C5FF0020D6
:1008B00002F0D0FA47F2305001F0BEFF012002F002
:1008C000C9FA47F2305001F0B7FF02F06FFB032086
:1008D000012102F075FB344802F096FB08237B608F
:1008E0000FE07B68DBB20120194602F069FB2F485C
:1008F00002F08AFB47F2305001F09EFF7B68013B1B
:100900007B607B68002BECDA0020002102F058FBB2
:10091000274802F079FB0120002102F051FB254815
:1009200002F072FB47F2305001F086FF01200021F7
:1009300002F046FB204802F067FB0220002102F093
:100940003FFB1E4802F060FB47F2305001F074FF9D
:100950000020012102F034FB1948FFF77FFF01203E
:10096000012102F02DFB1748FFF778FF022001213B
:1009700002F026FB1448FFF771FF47F2305001F0F8
:100980005BFF02200D2102F01BFB1048FFF766FF02
:100990000F4801F051FF02F009FB002002F05AFA63
:1009A0000837BD4680BD00BFD0490008E4490008B3
:1009B000EC490008F0490008F4490008F84900082B
:1009C000FC490008044A0008144A0008204A0008AC
:1009D000A0BB0D0080B483B000AF7860044A7B6890
:1009E00052F8233018460C37BD465DF8047B70473B
:1009F0000C05002080B483B000AF786039600549F1
:100A00007B683A6841F823200C37BD465DF8047BCB
:100A1000704700BF0C05002080B584B000AF78603F
:100A200002F0C4FA0020002102F0CAFA1C4802F0C9
:100A3000EBFA0120022102F0C3FA786802F0E4FA2E
:100A4000184802F0E1FA0220062102F0B9FA16482D
:100A500002F0DAFA0320062102F0B2FA134802F09B
:100A6000D3FA02F00FFAB86002F0A0FA01200421D4
:100A700002F0A6FABB68402B05D10D4802F0C4FA7B
:100A80000123FB7304E00B4802F0BEFA0023FB7362
:100A9000094801F0D1FEFB7B18461037BD4680BDEA
:100AA000144E0008204E0008244E0008344E000862
:100AB000444E0008544E000860E3160080B582B032
:100AC00000AF78607B68013B7B607B68052B00F2A0
:100AD0002B8101A252F823F0F10A00084D0B000807
:100AE000AB0B0008090C0008670C0008C50C0008D7
:100AF0008F48FFF791FF0346002B00D115E10A2034
:100B0000C821FFF777FF0B200021FFF773FF0C20B0
:100B10000021FFF76FFF0D200021FFF76BFF0E2074
:100B2000C821FFF767FF0F204FF41671FFF762FF30
:100B300010202821FFF75EFF11200021FFF75AFF48
:100B400012204FF40771FFF755FFEAE07948FFF7ED
:100B500063FF0346002B00D1E7E00A204FF4077142
:100B6000FFF748FF0B202821FFF744FF0C20282126
:100B7000FFF740FF0D202821FFF73CFF0E204FF428
:100B8000C871FFF737FF0F206421FFF733FF1020F4
:100B90002821FFF72FFF11200021FFF72BFF122044
:100BA0004FF40771FFF726FFBBE06348FFF734FF00
:100BB0000346002B00D1B8E00A204FF4E671FFF79E
:100BC00019FF0B20A021FFF715FF0C202821FFF7AC
:100BD00011FF0D202821FFF70DFF0E204FF4967115
:100BE000FFF708FF0F20FA21FFF704FF102028214C
:100BF000FFF700FF11200021FFF7FCFE12204FF449
:100C00000771FFF7F7FE8CE04C48FFF705FF03463E
:100C1000002B00D189E00A202821FFF7EBFE0B20F2
:100C20002821FFF7E7FE0C202821FFF7E3FE0D2027
:100C30002821FFF7DFFE0E204FF4C871FFF7DAFE20
:100C40000F204FF41671FFF7D5FE10202821FFF773
:100C5000D1FE11200021FFF7CDFE12204FF40771C5
:100C6000FFF7C8FE5DE03648FFF7D6FE0346002BCF
:100C700000D15AE00A206421FFF7BCFE0B2064215A
:100C8000FFF7B8FE0C206421FFF7B4FE0D206421AD
:100C9000FFF7B0FE0E204FF4C871FFF7ABFE0F2038
:100CA0004FF41671FFF7A6FE10202821FFF7A2FED1
:100CB00011200021FFF79EFE12204FF40771FFF76D
:100CC00099FE2EE01F48FFF7A7FE0346002B00D138
:100CD0002BE00A20A021FFF78DFE0B20A021FFF7BB
:100CE00089FE0C20A021FFF785FE0D20A021FFF733
:100CF00081FE0E204FF4C871FFF77CFE0F204FF4E9
:100D00001671FFF777FE10202821FFF773FE1120E0
:100D10000021FFF76FFE12204FF40771FFF76AFE04
:100D200000BF01F0B5FF00E000BF0837BD4680BD41
:100D3000604E00086C4E00087C4E00088C4E000887
:100D4000944E0008A04E000880B586B000AFFFF7B3
:100D5000F1FA3B1D184601F02BFA0420012101F0A5
:100D6000D9FA0820012101F0D5FA1020012101F063
:100D7000D1FA2020012101F0CDFA4FF400700121B9
:100D800001F0C8FA4FF48060012101F0C3FA4FF47A
:100D90000040012101F0BEFA4FF08050012101F026
:100DA000D7FA074A064B9B6943F001039361054A52
:100DB000044B5B6843F0007353601837BD4680BD39
:100DC000001002400000014080B500AF0248402101
:100DD000FFF728FD80BD00BF0010014080B584B042
:100DE00000AF0023FB60964B00221A60FFF7ACFFB8
:100DF00001F0F0FC142001F0D7FF02F0D7F802F068
:100E0000A1FAFFF743FDFFF7C3F9FFF7C7F901F0B8
:100E10001FFE01F06FF9002001F0ECF802F050F82D
:100E20000346002B14D002F0C1F80120032102F088
:100E3000C7F8844802F0E8F802E0834B15221A60F4
:100E400002F03EF80346002BF7D1804801F0F4FC95
:100E500002F0ACF80120032102F0B2F87C4802F065
:100E6000D3F80220002102F0ABF87A4802F0CCF867
:100E700001F054FD01F00AFE0320092102F0A0F860
:100E8000754B1B68184602F0F3F8744802F0BCF882
:100E9000714B1B68B3F5617F04DA02F011F8034669
:100EA000002BE5D042F2107001F0C6FC02F008F809
:100EB0000346002BF6D102F079F80120032102F05D
:100EC0007FF8674802F0A0F80220032102F078F8CA
:100ED000644802F099F80023BB6063E0032000211E
:100EE00002F06EF8604802F08FF801F017FD01F093
:100EF000CDFD5E4B1B68B3F5617F04DB01F0E0FFC5
:100F00000346002BEAD042F2107001F095FC01F08C
:100F1000D7FF0346002BF6D10320002102F050F842
:100F2000534802F071F80320002102F049F85148BB
:100F300002F06AF8BB680133184602F099F8B86805
:100F4000012102F0C9F942F2107001F075FC01F0C4
:100F5000E5FC01F09BFD454B1B68B3F5617F0DDAA5
:100F6000454802F051F8414B1B68184602F080F8E2
:100F70003A4802F049F801F085FF05E03F4802F0E9
:100F800043F83F4801F058FCB868002102F0A4F98A
:100F90002D4B1B68152B02D13A4801F04DFCBB6864
:100FA0000133BB60BB68072B98DD0023BB600EE0FC
:100FB000BB68991C344ABB685B01134418331B6837
:100FC00008461946FFF716FDBB680133BB601E4B90
:100FD0001B68BA689A42EBDB4FF0FF337B60FFF788
:100FE000F3FE00F035FD78600120FFF7F3FC0346C7
:100FF000112B23D1254B1B78002B03D0104B002243
:101000001A600FE00E4B1B6801330D4A13600C4B46
:101010001B681F4A934205D90B2000F0EBFF49F6ED
:101020004043FB60FB68002B08DDFB68013BFB6075
:10103000FB68002B02D1002000F0DCFFCFE700BFEF
:1010400078050020AC4E00080000002040420F0050
:10105000BC4E0008C84E00088C050020DC4E00087D
:10106000E44E0008F04E0008F84E000898050020F5
:10107000184F0008384F0008404F00084C4F000838
:10108000400D0300801A0600744B00087405002010
:10109000C0C62D0080B582B000AF23484FF4805108
:1010A000FFF7D6FA0346002B03D1204B03221A6028
:1010B00033E01E4B1B68002B04DD1C4B1B68013BFF
:1010C0001A4A1360194B1B68002B26D100237B6042
:1010D00006E042F2107001F0AFFB7B6801337B60E9
:1010E0007B68312B0BDC114B1B68002B07D10E48A2
:1010F0004FF48051FFF7ACFA0346002BE9D10A48C0
:101100004FF48051FFF7A4FA0346002B02D1074B9E
:1011100003221A60064B00221A60044B1B68184613
:101120000837BD4680BD00BF000C01406C050020A3
:101130008805002080B500AF0A480121FFF788FA32
:101140000346002B01D001230AE007484FF4004179
:10115000FFF77EFA0346002B01D0022300E00023B4
:10116000184680BD0008014000100140000000004A
:10117000B0B5A2B000AF7860B34BFB64012001F0C2
:1011800069FE41F2883001F057FBB0484FF48041CE
:10119000FFF75EFAB864BB6C002B1CD0AC4B1B781D
:1011A000002B18D101F002FF0120002101F008FFFF
:1011B000A84801F029FF0220002101F001FFA64804
:1011C00001F022FF01F064FDA44801F035FB00208E
:1011D00001F040FEE2E37B68002B19D10023C7F841
:1011E000843010E09E484FF48051FFF731FA0346F7
:1011F000012B03D1002001F02DFECFE3D7F884307E
:101200000133C7F88430D7F88430B3F57A7FE9DB4F
:101210000120FFF7DFFB0346112B13D001F0C6FEC0
:101220000120032101F0CCFE8E4801F0EDFE0220EA
:10123000032101F0C5FE8C4801F0E6FE8B4801F069
:10124000FBFAABE38A484FF48061FFF7C5F97F48AA
:101250004FF48041FFF7C0F901F032FE7864854811
:1012600001F0EAFA01F02CFE78647B6C002BF6D1D9
:10127000814B00221A60814B00221A60804B0022B1
:101280001A600E20FFF7A6FB03463B643B6C002B65
:1012900008D101F0FDFC7B4801F0B6FE7A4801F070
:1012A000CBFA7BE30F20FFF795FB0346184602F0CD
:1012B00059FB02460B461046194661A3D3E90023A9
:1012C00002F0C6FB02460B461046194602F05AFED3
:1012D0000346FB643B6C002B08D101F0D9FC6B4842
:1012E00001F092FE684801F0A7FA57E30023FB677C
:1012F0000023C7F8803013E0D7F880300A3318464F
:10130000FFF768FB0346FB63FB6B002B00D10BE090
:10131000FB6F0133FB67D7F880300133C7F88030AB
:10132000D7F88030032BE7DDFB6F002B0DD10020B9
:1013300001F0F0FF01F0ACFC01F0AAFC544801F010
:1013400063FE514801F078FA28E30023C7F88030A3
:1013500014E0D7F880300A331846FFF73BFB03460A
:101360001A46D7F880309B0007F188010B4443F8F8
:10137000702CD7F880300133C7F88030D7F8802040
:10138000FB6F9A42E5DB1220FFF724FB0346BB63A9
:10139000BB6BBB60BB6BFB60BB6B3B61BB6B7B61C7
:1013A00001F004FE0120032101F00AFE394801F09A
:1013B0002BFE1020FFF70EFB0346BB67B86F012121
:1013C00001F0AAFE344801F01FFEFF2000F012FEDB
:1013D00075E0324801F030FABB6F013BBB6701F0AA
:1013E0006FFD78647B6C002B5ED0002001F092FFD3
:1013F00001F0DCFD0120032101F0E2FD284801F0AD
:1014000003FE002000F0F6FD264801F015FAFF204B
:1014100000F0F0FD234801F00FFA002000F0EAFD93
:1014200000BF01F04DFD0346002BFAD17B68002B75
:1014300004D1FFF72FFE0346002BF7D1AEE200BF29
:101440008DEDB5A0F7C6B03E52491D3A00140140DB
:1014500072050020544F00085C4F0008400D030047
:10146000000C0140644F00086C4F000820A10700E9
:1014700000080140A0860100BC050020C405002032
:10148000B4050020784F000840420F008C4F000840
:101490009C4F0008AC4F0008B84F0008B88201000C
:1014A000C04F0008801A06000220082101F088FDC4
:1014B000B86F012101F030FEA54801F0A5FDBB6F1A
:1014C000002B86DC1120FFF785FA03461A46A14B54
:1014D0001A6001F06BFD02200C2101F071FD9E48A5
:1014E00001F092FD012001F015FF9C4A3B6C92FB3C
:1014F000F3F37B634FF4CC633B6300237B677B6B2D
:101500003B670020002101F05BFD924B1B68002B24
:1015100017DD904B1B68924A82FB03129210DB1777
:10152000D31A184601F0A4FD8E4801F06DFDBB688A
:101530008B4A82FB03129210DB17D31A184601F074
:1015400097FD894801F060FD0023C7F880301EE058
:10155000D7F880309B0007F18802134453F8703CA1
:101560007F4A82FB03129210DB17D31A184601F050
:101570007FFDFB6F5A1ED7F880309A4202DD7B4810
:1015800001F042FDD7F880300133C7F88030D7F83A
:101590008020FB6F9A42DBDB754801F035FD0120AE
:1015A000002101F00DFD386C01F062FD714801F081
:1015B0002BFDF86C704902F035FD0346184602F029
:1015C00081FE0346184601F053FD6C4801F01CFDF6
:1015D000604B1B683A6C02FB03F3614A82FB031207
:1015E0009210DB17D31A5B4A13600320002101F02D
:1015F000E7FCFFF79FFDF866FB6E002B12D0604BF7
:101600001B78002B0ED10123FB6601F0CFFC0120DB
:10161000032101F0D5FC5B4801F0F6FC002000F04E
:10162000E9FC07E00023FB66CB2000F0E3FC564812
:1016300001F002F901F0EEF80023BB6600237B669F
:1016400000233B66002387F85F300023BB6500233F
:101650007B654AE1FB6E012B16D101F031FC786409
:101660007B6C002B0FD001F0A1FC0120032101F0C5
:10167000A7FC464801F0C8FC00BF01F021FC03466E
:10168000002BFAD13EE130E101F0CCF803461846D8
:1016900002F068F904460D46386F02F073F902460D
:1016A0000B461046194628A3D3E9002302F0D0F9CF
:1016B00002460B462046294602F050FC0346002B0A
:1016C00002D0012001F026FE01F0ACF802463B6F8B
:1016D0009A42C0F00A812E484FF48041FEF7B8FFCD
:1016E000F862FB6A002B19D02A4B1B78002B15D10E
:1016F00001F05CFC0120002101F062FC264801F0B1
:1017000083FC0220002101F05BFC244801F07CFCFA
:1017100001F0BEFA224801F08FF8F3E001F07AF808
:101720000C4B1B68002B3DDD07F108031846042114
:101730003A6BFB6C01F0C6FE3865064B1B68013B3B
:10174000044A136039E000BF9A9999999999E93F41
:10175000C84F000888050020CC4F000800E718009B
:1017600067666666D44F0008D84F0008DC4F000853
:10177000E04F0008E44F0008002474490C4B0008B7
:1017800070050020E84F0008400D0300C04F00081E
:101790000014014072050020544F00085C4F0008FF
:1017A00040420F0007F118031846F96F3A6BFB6CC3
:1017B00001F088FE38657B6B3B673B6D002B02DCDC
:1017C000BB6D0133BB6501F02DF80346BB623B6D79
:1017D000002B03DDBA6A3B6F9A4255DD7B6E322BDC
:1017E00052DD704B1B78002B4ED13B6E01333B66B4
:1017F0007B6E01337B66BB6E322B3DDD002000F03B
:10180000F9FB01F0D3FB0120002101F0D9FB664870
:1018100001F0FAFB786E01F02BFC644801F0F4FB58
:101820000220002101F0CCFBBA6A3B6F9A4203DD33
:101830005F4801F0E9FB14E03B6D002B02DB5D48E3
:1018400001F0E2FB386D01F013FC5B4801F0DCFBBA
:101850000320022101F0B4FB584B1B68184601F02D
:10186000D3FB01F015FA002001F054FD012387F8A5
:101870005F3001F007FB45E07B6E322B03DDBB6E72
:101880000A33BB662BE02AE07B6D01337B657B6D01
:1018900003F08003002B03D0012001F0DBFA02E00B
:1018A000002001F0D7FA7B6E01337B6601F008FB64
:1018B00078647B6C002B0DD0414801F0A5FB03E060
:1018C00042F2107000F0B8FF01F0FAFA0346002B64
:1018D000F6D117E0BB6EDA0F13445B10BB667B6F6B
:1018E00001337B67322000F0A7FF7B68012B3FF4B8
:1018F000B1AE7B68002B05D1FFF7CCFB0346002B74
:101900007FF4A8AE002001F0A5FA01F0C3FD00208D
:1019100000F070FB002001F0FDFC2A4800F08CFF75
:10192000FF2000F067FB274800F086FF002000F052
:1019300061FB97F85F30002B02D0224800F07CFF5B
:10194000002001F087FA01F031FB0020002101F0B6
:1019500037FB1D4801F058FB786E01F089FB1B48EE
:1019600001F052FB386E01F083FB0120012101F0F0
:1019700027FB3B6E42F2107202FB03F27B6E92FB7E
:10198000F3F31846022101F0C7FB114801F03CFBBC
:10199000104800F051FF104B00221A608837BD46F6
:1019A000B0BD00BF71050020F84F000800500008CE
:1019B000085000081450000824500008B805002002
:1019C000C04F0008400D03002C50000834500008A0
:1019D00038500008404B4C007805002080B483B09C
:1019E00000AF786039607B68012B0FD0022B18D0D4
:1019F000002B00D020E03B68002B03DD114B0122BF
:101A00001A7019E00F4B00221A7015E03B68002B8A
:101A100003DD0D4B01221A700EE00B4B00221A70F1
:101A20000AE03B68002B03DD084B01221A7002E03C
:101A3000064B00221A7000BF0C37BD465DF8047BD0
:101A4000704700BF7105002070050020720500205E
:101A500080B58CB000AF0120FEF7BCFF0346FB62EF
:101A6000FB6A02331846FEF7B5FF03467B6200208F
:101A700001F0F0F9AB484FF48051FEF7E9FD034661
:101A8000002B06D10020FFF773FB4FF6FF733B627C
:101A900002E001F059FA38623B6A102B32D0102B69
:101AA00006DC042B45D0082B18D0012B12D0B5E151
:101AB000402B00F01081402B03DC202B00F0A28093
:101AC000ACE1802B00F01A814FF6FF72934200F0D8
:101AD000B481A3E10120FFF74BFBAFE1FB6A002BD0
:101AE0000FDDFB6A013BFB62FB6A01201946FEF732
:101AF00081FFFB6A02331846FEF76CFF03467B62E8
:101B00009CE19BE1884B1B685A1EFB6A9A420FDDE1
:101B1000FB6A0133FB62FB6A01201946FEF76AFF8C
:101B2000FB6A02331846FEF755FF03467B6285E1E8
:101B300084E17E4AFB6A5B01134418335B681846F4
:101B40004FF0FF31FFF74AFF784AFB6A5B0113440D
:101B500010331B68002B0CDA744AFB6A5B011344D8
:101B600008331B68002B03DBF86AFEF7A7FF65E16B
:101B700064E16E4AFB6A5B01134410335B68002B1F
:101B800009DD6A4AFB6A5B01134410335B687A6AB9
:101B9000D31A7B621AE0786A01F00EFCB8617B6AA6
:101BA000143B7B62786A01F007FC7861BA697B6953
:101BB0009A420BD15D4AFB6A5B01134408331A68F1
:101BC0007B6A9A4202DA7B69002BE8DA574AFB6AA1
:101BD0005B01134408331A687B6A9A4206DD534A54
:101BE000FB6A5B01134408331B687B62FB6A9A1C27
:101BF0007B6A10461946FEF7FDFE1FE142F21070A7
:101C000000F01AFE01F05CF90346002BF6D1474ABA
:101C1000FB6A5B01134418335B6818460121FFF728
:101C2000DDFE424AFB6A5B01134410331B68002B44
:101C30000CDA3E4AFB6A5B01134408331B68002B35
:101C400003DBF86AFEF73AFFF8E0F7E0374AFB6A91
:101C50005B01134410335B68002B09DD334AFB6AD8
:101C60005B01134410335B687A6A13447B621AE0A9
:101C7000786A01F0A1FB38617B6A14337B62786A71
:101C800001F09AFBF8603A69FB689A420BD1FB6855
:101C9000002B08DD254AFB6A5B01134408335A68B0
:101CA0007B6A9A42E8DC214AFB6A5B0113440833F1
:101CB0005A687B6A9A4206DA1C4AFB6A5B01134443
:101CC00008335B687B62FB6A9A1C7B6A1046194684
:101CD000FEF790FEB2E0FB6A002B0EDDFB6A0133DB
:101CE0001846FEF777FE03467B62FB6A9A1C7B6A06
:101CF00010461946FEF77EFEA0E09FE00C4B1B68E5
:101D0000002B6ED10F2000F075F90A4800F094FD09
:101D100009484FF48061FEF75FFC0023BB6000239D
:101D2000FB6144E0000C014000000020744B0008FF
:101D30006805002020A10700000801409A4800F033
:101D40007BFDFB690133FB61FFF7F4F9B860BB6809
:101D5000012B09D101F02AF90120002101F030F90D
:101D6000924801F051F915E0BB68022B09D101F04E
:101D70001DF90120032101F023F98D4801F044F9F8
:101D800008E001F013F90120012101F019F9894857
:101D900001F03AF9FB69322B09DD0220052101F03F
:101DA0000FF9854801F030F9844B01221A6001F0E7
:101DB00087F80346002BC1D1804B1B68002B0FD145
:101DC000002000F017F97E4800F036FD0F2000F0EB
:101DD00011F97B4800F030FD002000F00BF91CE009
:101DE0001BE0002000F006F9754800F025FD0F20EB
:101DF00000F000F9724800F01FFD002000F0FAF832
:101E000002E0694800F018FD01F05AF80346002B83
:101E1000F7D16A4B00221A6010E00FE0694B1B7883
:101E2000002B01D1FB6ABBE0664B00221A70012037
:101E30000021FEF7DFFD0023FB6200BFFB6A013BD0
:101E4000BB6245E0BA6AFB6AD31A01337B607B68E8
:101E5000DBB21846022101F0B3F8BB6A002B04DBA9
:101E6000594B1B68BA6A9A4203DB584801F0CCF818
:101E70002BE0574ABB6A5B0113441B68184601F00C
:101E8000C3F8534ABB6A5B01134410331B68002B31
:101E900010DBBB6A02331846FEF79CFD0346194669
:101EA0004B4ABB6A5B01134410331B680846194652
:101EB00001F032F9464ABB6A5B0113445B6818467D
:101EC00001F0A2F8414801F09FF8BB6A0133BB6200
:101ED000FB6A5A1CBB6A9A42B4DA0020002101F066
:101EE0006FF8FB6A002B03DD3A4801F08DF802E041
:101EF000394801F089F80120002101F061F8344AE5
:101F0000FB6A5B01134410335B68002B20DD304A11
:101F1000FB6A5B01134408331A687B6A9A4203DA4E
:101F20002E4801F071F802E02D4801F06DF8284AC2
:101F3000FB6A5B01134408335A687B6A9A4203DDEB
:101F4000284801F061F812E0254801F05DF80EE044
:101F50001F4AFB6A5B01134410335B68002B03DAF2
:101F6000214801F051F802E01B4801F04DF8022031
:101F7000002101F025F8144B1B685A1EFB6A9A4297
:101F800003DD1A4801F040F802E0134801F03CF884
:101F90000320002101F014F8154801F035F8FB6A20
:101FA00018463037BD4680BDA08601003C50000871
:101FB0005450000868500008785000086805002058
:101FC000400D03000400002000000020885000089D
:101FD000744B0008A0500008A4500008A850000846
:101FE000DC4F0008AC500008B0500008B4500008A6
:101FF000B850000880B584B000AF78607B6803F00B
:102000000F03002B06D0374B01221A70364B0022EB
:102010001A6002E0334B00221A70344B1B68002B0D
:102020001ED133484FF40071FEF70AFC30484FF4DC
:102030008071FEF705FC2E488021FEF701FC2C483C
:102040004FF40071FEF762FA29484FF48071FEF7F1
:102050005DFA27488021FEF759FA244B01221A60C5
:102060000123BB600023FB6026E07A68BB68134055
:10207000002B05D01E484FF48071FEF7D3FB04E01F
:102080001B484FF48071FEF7DBFB642000F0D4FBAB
:1020900017488021FEF7C6FB642000F0CDFB1448F2
:1020A0008021FEF7CDFB322000F0C6FB7B685B1081
:1020B0007B60FB680133FB60FB68072BD5DD0C48B8
:1020C0004FF40071FEF7AEFB642000F0B5FB08484A
:1020D0004FF40071FEF7B4FB642000F0ADFB103745
:1020E000BD4680BD74050020780500207C050020D9
:1020F0000010014080B582B000AF00237B600CE08F
:1021000001227B6802FA03F31846FFF773FF1848B1
:1021100000F092FB7B6801337B607B68072BEFDD6F
:102120000B20FFF767FF124800F086FB0F20FFF738
:1021300061FF0F4800F080FB0C20FFF75BFF0C48AD
:1021400000F07AFB4020FFF755FF0A4800F074FBCF
:102150008020FFF74FFF064800F06EFB0020FFF7DE
:1021600049FF034800F068FB0837BD4680BD00BF4B
:10217000400D0300E093040080B485B000AF7860A8
:102180000023FB60094B5B68FB60FB6823F4404362
:10219000FB60FA687B681343FB60044AFB6853608A
:1021A0001437BD465DF8047B704700BF0010024045
:1021B00080B487B000AF786000237B6100233B616F
:1021C0000023FB600023BB604D4B5B6803F00C03F6
:1021D0007B617B69042B07D0082B09D0002B34D1FD
:1021E0007B68484A1A6034E07B68464A1A6030E0EF
:1021F000434B5B6803F470133B61414B5B6803F432
:102200008033FB603B699B0C02333B61FB68002B16
:1022100006D13B693C4A02FB03F27B681A6013E07B
:10222000374B5B6803F40033002B06D03B69364A1A
:1022300002FB03F27B681A6006E03B69314A02FB4D
:1022400003F27B681A6004E003E07B682D4A1A60A1
:1022500000BF2B4B5B6803F0F0037B617B691B09BC
:102260007B612A4A7B6913441B78DBB2BB607B68C5
:102270001A68BB68DA407B685A60214B5B6803F4DC
:10228000E0637B617B691B0A7B61204A7B691344A5
:102290001B78DBB2BB607B685A68BB68DA407B683E
:1022A0009A60174B5B6803F460537B617B69DB0AC0
:1022B0007B61164A7B6913441B78DBB2BB607B6889
:1022C0005A68BB68DA407B68DA600D4B5B6803F4E0
:1022D00040437B617B699B0B7B610D4A7B691344A7
:1022E0001B78DBB2BB607B68DA68BB68B2FBF3F2D9
:1022F0007B681A611C37BD465DF8047B704700BFE0
:102300000010024000127A0000093D000800002081
:102310001800002080B483B000AF78600B46FB70DB
:10232000FB78002B06D00949084B9A697B68134358
:102330008B6106E00549054B9A697B68DB431340D6
:102340008B610C37BD465DF8047B7047001002407E
:1023500080B483B000AF78600B46FB70FB78002B35
:1023600006D00949084BDA697B681343CB6106E064
:102370000549054BDA697B68DB431340CB610C37B9
:10238000BD465DF8047B70470010024080B483B006
:1023900000AF78600B46FB70FB78002B06D0094934
:1023A000084BDA687B681343CB6006E00549054BB0
:1023B000DA687B68DB431340CB600C37BD465DF8C1
:1023C000047B70470010024080B582B000AF786097
:1023D0007B68174A93420AD14FF400700121FFF73E
:1023E000D5FF4FF400700021FFF7D0FF1CE07B68A1
:1023F000104A93420AD14FF480600121FFF7C6FFD3
:102400004FF480600021FFF7C1FF0DE07B680A4AAE
:10241000934209D14FF400400121FFF7B7FF4FF479
:1024200000400021FFF7B2FF0837BD4680BD00BF66
:102430000024014000280140003C014080B485B0E8
:1024400000AF786039600023FB600023FB727B687B
:102450005B68FB60FB6823F4702323F48073FB60EC
:102460003B681A683B681B791B021343FA681343E5
:10247000FB607B68FA685A607B689B68FB60FA685F
:10248000164B1340FB603B68DA683B689B681A4355
:102490003B685B795B001343FA681343FB607B681E
:1024A000FA689A607B68DB6AFB60FB6823F4700360
:1024B000FB603B681B7C013BDAB2FB7A1343FB7287
:1024C000FB7A1B05FA681343FB607B68FA68DA62E3
:1024D0001437BD465DF8047B704700BFFDF7F1FF80
:1024E00080B483B000AF78600B46FB70FB78002BA4
:1024F00006D07B689B6843F001027B689A6005E028
:102500007B689B6823F001027B689A600C37BD46AC
:102510005DF8047B704700BF80B483B000AF786083
:102520007B689B6843F008027B689A600C37BD4665
:102530005DF8047B704700BF80B485B000AF786061
:102540000023FB737B689B6803F00803002B02D019
:102550000123FB7301E00023FB73FB7B1846143758
:10256000BD465DF8047B704780B483B000AF7860EF
:102570007B689B6843F004027B689A600C37BD4619
:102580005DF8047B704700BF80B485B000AF786011
:102590000023FB737B689B6803F00403002B02D0CD
:1025A0000123FB7301E00023FB73FB7B1846143708
:1025B000BD465DF8047B704780B483B000AF78609F
:1025C0000B46FB70FB78002B06D07B689B6843F4BE
:1025D000A0027B689A6005E07B689B6823F4A002F8
:1025E0007B689A600C37BD465DF8047B704700BF7E
:1025F00080B485B000AF7860084611461A4603469D
:10260000FB700B46BB7013467B700023FB600023FE
:10261000BB60FB78092B23D97B68DB68FB60FB7808
:10262000A3F10A0213465B001344072202FA03F3E4
:10263000BB60BB68DB43FA681340FB607978FB78CA
:10264000A3F10A0213465B00134401FA03F3BB60D3
:10265000FA68BB681343FB607B68FA68DA601EE0C7
:102660007B681B69FB60FA7813465B001344072202
:1026700002FA03F3BB60BB68DB43FA681340FB60FC
:102680007978FA7813465B00134401FA03F3BB60D0
:10269000FA68BB681343FB607B68FA681A61BB7811
:1026A000062B21D87B685B6BFB60BB785A1E1346F8
:1026B0009B0013441F2202FA03F3BB60BB68DB4399
:1026C000FA681340FB60F978BB785A1E13469B00EA
:1026D000134401FA03F3BB60FA68BB681343FB6061
:1026E0007B68FA685A6347E0BB780C2B21D87B687B
:1026F0001B6BFB60BB78DA1F13469B0013441F2241
:1027000002FA03F3BB60BB68DB43FA681340FB606B
:10271000F978BB78DA1F13469B00134401FA03F3E0
:10272000BB60FA68BB681343FB607B68FA681A6396
:1027300022E07B68DB6AFB60BB78A3F10D021346E5
:102740009B0013441F2202FA03F3BB60BB68DB4308
:10275000FA681340FB60F978BB78A3F10D021346C9
:102760009B00134401FA03F3BB60FA68BB68134390
:10277000FB607B68FA68DA621437BD465DF8047B5B
:10278000704700BF80B483B000AF78607B68DB6CBB
:102790009BB218460C37BD465DF8047B704700BFFE
:1027A00080B485B000AF78600B46FB700023FB73EC
:1027B0007B681A68FB781340002B02D00123FB735F
:1027C00001E00023FB73FB7B18461437BD465DF820
:1027D000047B704780B584B000AF01200121FFF772
:1027E000B7FD4223BB800023FB804FF6FF733B8184
:1027F00000237B8100233B733B1D4FF08040194633
:10280000FDF7E0FC4FF080400121FDF757FD103748
:10281000BD4680BD80B500AF4FF080400021FDF780
:102820006DFD80BD80B500AF4FF08040FDF774FDB9
:102830000346184680BD00BF80B588B000AF786001
:10284000FFF7F0FF0346FB83324A4FF00003C7E96E
:1028500004237B681A464FF00003796902FB01F0FC
:10286000396903FB01F101443869A0FB02231944D3
:102870000B46C7E90423C7E90423D7E9042310461C
:102880001946254A4FF0000301F042FD02460B466F
:10289000C7E90423D7E90423134305D14FF001020C
:1028A0004FF00003C7E9042328E0FFF7BBFF03460E
:1028B000FB81FA89FB8B9A420DD3FA89FB8BD31AE1
:1028C0001A464FEAE273D7E90401821A61EB030367
:1028D000C7E9042310E0FB8BC3F57F43FF33FA897C
:1028E000134401331A464FEAE273D7E90401821A0E
:1028F00061EB0303C7E90423FB89FB83D7E90423C6
:10290000012A73F10003D0DAFB8B18462037BD464D
:1029100080BD00BF00E7180040420F0080B400AF48
:10292000BD465DF8047B704780B588B000AF786025
:102930004FF40040FFF720FC7868FFF745FD0023C7
:10294000FB6000233B7400237B744FF460237B61A6
:102950000023BB6101233B7707F10C03786819461C
:10296000FFF76CFD78680121FFF7BAFD7868FFF783
:10297000D3FD00BF7868FFF7DFFD0346002BF9D1D8
:102980007868FFF7F1FD00BF7868FFF7FDFD0346AB
:10299000002BF9D12037BD4680BD00BF80B582B085
:1029A00000AF78600B46FB70FB787868194601220F
:1029B0000023FFF71DFE78680121FFF7FDFD00BF32
:1029C00078680221FFF7ECFE0346002BF8D0786808
:1029D000FFF7D8FE034618460837BD4680BD00BF46
:1029E00080B582B000AF78607B689B6843F4A0023A
:1029F0007B689A6000BF78680221FFF7D1FE03462A
:102A0000002BF8D07868FFF7BDFE0346184608375C
:102A1000BD4680BD80B500AF0248FFF7E1FF034629
:102A2000184680BD0028014080B500AF0248FFF77E
:102A3000D7FF0346184680BD0024014080B500AF93
:102A40000248FFF7CDFF0346184680BD003C014019
:102A500080B500AF0A48FFF767FF09480121FFF77B
:102A60009DFF0848FFF760FF06480321FFF796FF28
:102A70000548FFF759FF04480221FFF78FFF80BD8B
:102A80000024014000280140003C014080B500AF17
:102A9000FFF7CAFF0246064B1A60FFF7BBFF02466C
:102AA000044B1A60FFF7CAFF0246034B1A6080BD51
:102AB0008C050020980500209005002080B582B08C
:102AC00000AF0346FB71FB7903F00103002B05D037
:102AD00038484FF48051FDF7A5FE04E035484FF427
:102AE0008051FDF7ADFEFB7903F00203002B04D00B
:102AF00031480421FDF796FE03E02F480421FDF73D
:102B00009FFEFB7903F00403002B04D02B4808211F
:102B1000FDF788FE03E029480821FDF791FEFB79C7
:102B200003F00803002B04D024481021FDF77AFE9F
:102B300003E022481021FDF783FEFB7903F0100328
:102B4000002B04D01D482021FDF76CFE03E01B483C
:102B50002021FDF775FEFB7903F02003002B04D044
:102B600016484021FDF75EFE03E014484021FDF7C2
:102B700067FEFB7903F04003002B04D00F4880214F
:102B8000FDF750FE03E00D488021FDF759FEFB796B
:102B90005BB2002B05DA07484FF40051FDF742FE07
:102BA00004E004484FF40051FDF74AFE0837BD46E3
:102BB00080BD00BF0010014000140140000C014026
:102BC00080B500AF1C484FF40041FDF79FFC1B4847
:102BD0004FF48061FDF79AFC18484FF40061FDF74F
:102BE00095FC16484FF48051FDF790FC14480421E1
:102BF000FDF78CFC13480821FDF788FC11481021D3
:102C0000FDF784FC0F482021FDF780FC0D48402192
:102C1000FDF77CFC0B488021FDF778FC07484FF45A
:102C20000051FDF773FC07480421FDF709FE054834
:102C30000421FDF76BFC80BD00080140001001403D
:102C400000140140000C014080B584B000AF7860F2
:102C50000023FB6012E00D480421FDF7E3FD4FF473
:102C6000FA70FFF7E9FD09480421FDF7E9FD4FF48B
:102C7000FA70FFF7E1FDFB680133FB60FA687B68DF
:102C80009A42E8DB1037BD4680BD00BF000C014012
:102C900080B500AF6420FFF7D7FF80BD80B500AFDF
:102CA0002320FFF7C9FD80BD80B500AF0A20FFF7E4
:102CB000C3FD80BD80B582B000AF0346FB711848EC
:102CC0004FF48061FDF7BCFDFFF7EEFFFB7918467E
:102CD000FFF7F4FEFFF7E8FF11484FF40061FDF73E
:102CE000A1FDFFF7E1FF0E484FF40061FDF7A8FDDD
:102CF000FFF7DAFFFF20FFF7E1FEFFF7CFFFFB79D9
:102D0000012B09D140F6B830FFF796FD054B0022A4
:102D10001A60054B00221A600837BD4680BD00BF0F
:102D200000100140A4050020A805002080B582B055
:102D300000AF0346FB71184B1A68184B1B689A4288
:102D400000DB26E016484FF48061FDF76BFDFFF7CE
:102D5000ABFFFB79134AD35C1846FFF7AFFEFFF7D2
:102D6000A3FF0F484FF40061FDF75CFDFFF79CFFE8
:102D70000B484FF40061FDF763FDFFF795FFFF205F
:102D8000FFF79CFEFFF78AFF034B1B680133024AE3
:102D900013600837BD4680BDA8050020A0050020AF
:102DA00000100140E850000880B582B000AF7860A4
:102DB000214B14221A60214B00221A60204B002262
:102DC0001A60204B00221A601F4B4FF448721A60A1
:102DD0001E4B00221A60FFF7F3FE1D484FF480617E
:102DE000FDF72EFD1A484FF48061FDF71BFDFF2013
:102DF000FFF764FE16484FF48061FDF721FD14488B
:102E00004FF48061FDF70EFD3820FFF753FF4FF4BC
:102E10007A70FFF711FD0C20FFF74CFF4FF47A702A
:102E2000FFF70AFD0120FFF745FF0620FFF742FFED
:102E30000837BD4680BD00BFA0050020A4050020C6
:102E4000A8050020AC0500209C050020B00500204E
:102E50000010014080B582B000AF0346FB71FB79E2
:102E6000002B05D106484FF40041FDF7DBFC04E0E0
:102E700003484FF40041FDF7E3FC0837BD4680BD31
:102E80000008014080B582B000AF00237B6000F0F5
:102E900017F878607B68002BF9D04CF25030FFF7C0
:102EA000CBFC00BF00F00CF80346002BFAD14CF22B
:102EB0005030FFF7C1FC7B6818460837BD4680BD1F
:102EC00080B584B000AF0023FB600123BB601D48C8
:102ED0004FF40061FDF7B4FCFF20FFF7EFFD642025
:102EE000FFF7AAFC17484FF48041FDF781FC034629
:102EF000002B01D1FB6820E000237B6019E0BB6858
:102F0000DBB21846FFF7DAFD6420FFF795FC0D48A9
:102F10004FF48041FDF76CFC0346002B03D0FA68A8
:102F2000BB681343FB60BB685B00BB607B6801331D
:102F30007B607B68072BE2DDFB6818461037BD46D7
:102F400080BD00BF0010014080B582B000AFFFF728
:102F5000B7FF7860134B1A687B689A420DD1124B09
:102F60001B680133104A13600E4A7B6813600E4BD6
:102F70001B68B3F5FA7F0FDD07E00B4B00221A60E8
:102F8000084A7B6813607B6807E0074B1B68C83BF7
:102F9000054A13607B6800E0002318460837BD46E9
:102FA00080BD00BF800500208405002080B500AFF3
:102FB0000120FFF77FFE0220FFF77CFE80BD00BFEF
:102FC00080B584B000AF03460A46FB711346BB715F
:102FD000FB790A4AD25CBB791344FB73FB7B63F039
:102FE0007F03DBB21846FFF765FEFB79044A1360E6
:102FF000BB79044A13601037BD4680BDD450000829
:10300000A4050020A805002080B584B000AF78603A
:103010000023FB6009E0FB687A6813441B781846BC
:10302000FFF784FEFB680133FB60FB68132B0BDCAE
:10303000FB687A6813441B78002B05D0044B1A6890
:10304000044B1B689A42E6DB1037BD4680BD00BFCB
:10305000A8050020A005002080B582B000AF03467F
:10306000FB71FB791846FFF761FE0837BD4680BD4E
:1030700080B586B000AF786000237B617B68002B51
:1030800005DA2D20FFF752FE7B685B427B607B6890
:10309000002B03D13020FFF749FE37E021E07B68A9
:1030A0003B617B681B4A82FB03129210DB17D31A29
:1030B0007B607B68DBB21A465201D21A9200D31AA7
:1030C0005B00DAB23B69DBB21344DBB23033D9B216
:1030D00007F108027B6913440A461A707B690133C1
:1030E0007B617B68002BDADC7B69013B7B610AE05A
:1030F00007F108027B6913441B781846FFF716FE98
:103100007B69013B7B617B69002BF1DA1837BD4697
:1031100080BD00BF6766666680B586B000AF786028
:1031200039603B68002B03D17868FFF7A1FF6BE0A3
:1031300000237B6100233B617B68002B05DA344868
:10314000FFF762FF7B685B427B607B687B610023EB
:10315000FB600AE07B692F4A82FB03129210DB17A7
:10316000D31A7B61FB680133FB60FA683B689A42C3
:10317000F0DB7869FFF77CFF7B693B610023FB6034
:1031800008E03A6913469B0013445B003B61FB680F
:103190000133FB60FA683B689A42F2DB7A683B696C
:1031A000D31A3B613B69002B1EDD1B48FFF72CFF48
:1031B0003B68022B05D13B69092B02DC1748FFF75E
:1031C00023FF3B68032B0BD13B69632B02DC1348C5
:1031D000FFF71AFF3B69092B02DC1048FFF714FFC9
:1031E0003869FFF745FF0FE00D48FFF70DFF00239B
:1031F000FB6005E00A48FFF707FFFB680133FB604F
:10320000FA683B689A42F5DB1837BD4680BD00BFBF
:10321000D850000867666666DC500008E050000879
:10322000E450000880B582B000AF78607B681B7BFB
:10323000002B09D07B681A687B685B689BB21046DC
:103240001946FDF7EFFA08E07B681A687B685B684F
:103250009BB210461946FDF7F3FA0837BD4680BD0C
:1032600080B582B000AF78607B681B7B002B09D0F3
:103270007B681A687B685B689BB210461946FDF74D
:10328000DFFA08E07B681A687B685B689BB21046CF
:103290001946FDF7C7FA0837BD4680BD80B582B034
:1032A00000AF78607B685B689AB20A4B1A80094B62
:1032B0001022DA70074B03229A707B681B6818464D
:1032C0000449FDF7D5F97868FFF7CAFF0837BD460E
:1032D00080BD00BF9405002080B582B000AF78604B
:1032E0000B46FB70FB78002B07D17B681B01084A5B
:1032F00013441846FFF7B4FF06E07B681B01044A3D
:1033000013441846FFF78EFF0837BD4680BD00BF47
:103310001C00002080B582B000AF0346FB71FB7932
:10332000002B05D0064802210222FDF76BF904E0CC
:10333000034802210022FDF765F90837BD4680BD2C
:103340000010014080B582B000AF00237B6009E02F
:103350007B681B01154A13441846FFF79FFF7B68E3
:1033600001337B607B68072BF2DD114801210022CD
:10337000FDF748F90E4802210022FDF743F90C48F9
:103380000121FDF7C3F80A480221FDF7BFF80948FB
:103390004FF480714FF48072FDF734F905484FF413
:1033A0008071FDF703F90837BD4680BD1C00002081
:1033B000001001400014014080B487B000AF786075
:1033C00000237B610123FB6000233B611BE0164A65
:1033D0003B691B01134408331A687B689A420CDC72
:1033E0007A69FB6813437B610F4A3B691B011344F5
:1033F00008331B687A68D31A7B60FB685B00FB604C
:103400003B6901333B613B69072BE0DD7B68002BA7
:1034100001D17B6901E04FF0FF3318461C37BD46F0
:103420005DF8047B704700BF1C00002080B584B0AD
:1034300000AF78600023FB6023E0154AFB681B01A6
:10344000134408331A687B689A4210DC104AFB6800
:103450001B01134408331B687A68D31A7B60FB682E
:103460001B010B4A13441846FFF7DCFE06E0FB681D
:103470001B01074A13441846FFF7F2FEFB680133AD
:10348000FB60FB68072BD8DD1037BD4680BD00BF51
:103490001C00002080B500AF094802210022FDF782
:1034A000B1F8074801210122FDF7ACF84FF47A701A
:1034B000FFF7C2F9024801210022FDF7A3F880BD01
:1034C0000010014090B58FB000AFF860B9607A602D
:1034D0003B603868764900F0A5FD0346184600F0C9
:1034E000F1FE0346002B00DA03339B103B620023FE
:1034F0003B631423FB616F4802210222FDF782F82F
:103500004FF49670FFF798F90023FB620BE0FFF78A
:1035100005FAFFF7BBFA684B1B683A6B13443B6331
:10352000FB6A0133FB62FB6A0F2BF0DD3B6B634AE6
:1035300082FB03121A44D210DB17D31A3B63604B91
:103540001B6801335E4A13605B4B1B68BB61FB6801
:103550001B681846FFF76AFFFFF7E0F9FFF796FAD6
:10356000584B1B68B3F5617F15DA574B1B68B3F5F1
:10357000617F10DD0020FFF759FF544A544B144679
:1035800007CB20606160A2601B88A3815148FFF7D0
:1035900053F9002387E0BB6996337B6145480221DC
:1035A0000022FDF72FF8434801210122FDF72AF8F8
:1035B0001E20FFF741F93F4801210022FDF722F8C4
:1035C000FFF7ACF90023BB620CE0FFF75FFA3A4B60
:1035D0001A687B699A4200DD07E0FFF79FF9BB6A32
:1035E0000133BB62BB6A002BEFDD324801210022B0
:1035F000FDF708F82F4801210022FDF703F8012309
:103600003B61FFF70FF903467B6200237B631DE0FC
:103610007B6B9B00FA6813441B68002B0CD07B6B00
:103620009B00FA6813441B681846FFF7FFFE7A6A8E
:103630003B6A13447B6200E00CE0FFF7F3F80246BC
:103640007B6A9A42F9D37B6B01337B637A6BBB68ED
:103650009A42DDDB0020FFF7E9FE3B6B05333B635D
:103660007B681D4A82FB03129210DB17D31A7A681B
:10367000D31A7B6003E0FFF751F9FFF707FAFFF772
:10368000D1F802467B689A4204D20B4B1A683B6B16
:103690009A42F0DC3B69002B04DC104B1B680133C1
:1036A0000E4A13603B6918463C37BD4690BD00BFCB
:1036B0000038C7490010014090050020898888889B
:1036C000B4050020980500208C050020C8050020C6
:1036D000E851000820A1070067666666C40500205F
:1036E00081F0004102E000BF83F0004330B54FEAB3
:1036F00041044FEA430594EA050F08BF90EA020F20
:103700001FBF54EA000C55EA020C7FEA645C7FEAB2
:10371000655C00F0E2804FEA5454D4EB5555B8BFD5
:103720006D420CDD2C4480EA020281EA030382EA46
:10373000000083EA010180EA020281EA0303362DD8
:1037400088BF30BD11F0004F4FEA01314FF4801CAB
:103750004CEA113102D0404261EB410113F0004FBD
:103760004FEA03334CEA133302D0524263EB430374
:1037700094EA050F00F0A780A4F10104D5F1200E12
:103780000DDB02FA0EFC22FA05F2801841F100016D
:1037900003FA0EF2801843FA05F359410EE0A5F141
:1037A00020050EF1200E012A03FA0EFC28BF4CF072
:1037B000020C43FA05F3C01851EBE37101F0004528
:1037C00007D54FF0000EDCF1000C7EEB00006EEB35
:1037D0000101B1F5801F1BD3B1F5001F0CD34908BF
:1037E0005FEA30004FEA3C0C04F101044FEA445216
:1037F00012F5800F80F09A80BCF1004F08BF5FEA9D
:10380000500C50F1000041EB045141EA050130BD7C
:103810005FEA4C0C404141EB010111F4801FA4F11F
:103820000104E9D191F0000F04BF01460020B1FA74
:1038300081F308BF2033A3F10B03B3F120020CDAAC
:103840000C3208DD02F1140CC2F10C0201FA0CF08A
:1038500021FA02F10CE002F11402D8BFC2F1200CEF
:1038600001FA02F120FA0CFCDCBF41EA0C019040A5
:10387000E41AA2BF01EB0451294330BD6FEA0404EE
:103880001F3C1CDA0C340EDC04F11404C4F12002D9
:1038900020FA04F001FA02F340EA030021FA04F3EB
:1038A00045EA030130BDC4F10C04C4F1200220FA42
:1038B00002F001FA04F340EA0300294630BD21FA80
:1038C00004F0294630BD94F0000F83F4801306BF46
:1038D00081F480110134013D4EE77FEA645C18BF3A
:1038E0007FEA655C29D094EA050F08BF90EA020FD1
:1038F00005D054EA000C04BF1946104630BD91EAC9
:10390000030F1EBF0021002030BD5FEA545C05D1CB
:103910004000494128BF41F0004130BD14F580040A
:103920003CBF01F5801130BD01F0004545F0FE417E
:1039300041F470014FF0000030BD7FEA645C1ABFB3
:10394000194610467FEA655C1CBF0B46024650EAEA
:10395000013406BF52EA033591EA030F41F4002116
:1039600030BD00BF90F0000F04BF0021704730B59C
:103970004FF4806404F132044FF000054FF0000171
:1039800050E700BF90F0000F04BF0021704730B532
:103990004FF4806404F1320410F0004548BF404207
:1039A0004FF000013EE700BF42004FEAE2014FEA5C
:1039B00031014FEA02701FBF12F07F4393F07F4F37
:1039C00081F06051704792F0000F14BF93F07F4F69
:1039D000704730B54FF4607401F0004521F00041AC
:1039E00020E700BF50EA010208BF704730B54FF032
:1039F00000050AE050EA010208BF704730B511F037
:103A0000004502D5404261EB41014FF4806404F16E
:103A100032045FEA915C3FF4DCAE4FF003025FEAF0
:103A2000DC0C18BF03325FEADC0C18BF033202EB78
:103A3000DC02C2F1200300FA03FC20FA02F001FAD2
:103A400003FE40EA0E0021FA02F11444C1E600BF71
:103A500070B54FF0FF0C4CF4E06C1CEA11541DBF24
:103A60001CEA135594EA0C0F95EA0C0F00F0DEF8EF
:103A70002C4481EA030621EA4C5123EA4C5350EAD4
:103A8000013518BF52EA033541F4801143F4801325
:103A900038D0A0FB02CE4FF00005E1FB02E506F0B6
:103AA0000042E0FB03E54FF00006E1FB03569CF00B
:103AB000000F18BF4EF0010EA4F1FF04B6F5007F11
:103AC00064F5407404D25FEA4E0E6D4146EB060683
:103AD00042EAC62141EA55514FEAC52040EA5E500C
:103AE0004FEACE2EB4F1FD0C88BFBCF5E06F1ED8B6
:103AF000BEF1004F08BF5FEA500E50F1000041EBED
:103B0000045170BD06F0004646EA010140EA020099
:103B100081EA0301B4EB5C04C2BFD4EB0C0541EABB
:103B2000045170BD41F480114FF0000E013C00F3D0
:103B3000AB8014F1360FDEBF002001F0004170BDF4
:103B4000C4F10004203C35DA0C341BDC04F114040D
:103B5000C4F1200500FA05F320FA04F001FA05F299
:103B600040EA020001F0004221F0004110EBD37066
:103B700021FA04F642EB06015EEA430E08BF20EA92
:103B8000D37070BDC4F10C04C4F1200500FA04F335
:103B900020FA05F001FA04F240EA020001F00041C7
:103BA00010EBD37041F100015EEA430E08BF20EA3A
:103BB000D37070BDC4F1200500FA05F24EEA020E82
:103BC00020FA04F301FA05F243EA020321FA04F0B1
:103BD00001F0004121FA04F220EA020000EBD37068
:103BE0005EEA430E08BF20EAD37070BD94F0000F68
:103BF0000FD101F00046400041EB010111F4801F9C
:103C000008BF013CF7D041EA060195F0000F18BF4C
:103C1000704703F00046520043EB030313F4801F88
:103C200008BF013DF7D043EA0603704794EA0C0F42
:103C30000CEA135518BF95EA0C0F0CD050EA410658
:103C400018BF52EA4306D1D181EA030101F00041D5
:103C50004FF0000070BD50EA410606BF10461946FD
:103C600052EA430619D094EA0C0F02D150EA013609
:103C700013D195EA0C0F05D152EA03361CBF10464A
:103C800019460AD181EA030101F0004141F0FE41E9
:103C900041F470014FF0000070BD41F0FE4141F46D
:103CA000780170BD70B54FF0FF0C4CF4E06C1CEA6D
:103CB00011541DBF1CEA135594EA0C0F95EA0C0F22
:103CC00000F0A7F8A4EB050481EA030E52EA0335DD
:103CD0004FEA013100F088804FEA03334FF08055FE
:103CE00045EA131343EA12634FEA022245EA11152B
:103CF00045EA10654FEA00260EF000419D4208BFDC
:103D0000964244F1FD0404F5407402D25B084FEA88
:103D10003202B61A65EB03055B084FEA32024FF434
:103D200080104FF4002CB6EB020E75EB030E22BF91
:103D3000B61A754640EA0C005B084FEA3202B6EB51
:103D4000020E75EB030E22BFB61A754640EA5C0000
:103D50005B084FEA3202B6EB020E75EB030E22BF90
:103D6000B61A754640EA9C005B084FEA3202B6EB91
:103D7000020E75EB030E22BFB61A754640EADC0050
:103D800055EA060E18D04FEA051545EA16754FEAB2
:103D900006164FEAC30343EA52734FEAC2025FEAD0
:103DA0001C1CC0D111F4801F0BD141EA00014FF05F
:103DB00000004FF0004CB6E711F4801F04BF014330
:103DC0000020B4F1FD0C88BFBCF5E06F3FF6AFAE4C
:103DD000B5EB030C04BFB6EB020C5FEA500C50F1DC
:103DE000000041EB045170BD0EF0004E4EEA11315F
:103DF00014EB5C04C2BFD4EB0C0541EA045170BD66
:103E000041F480114FF0000E013C90E645EA060EA9
:103E10008DE60CEA135594EA0C0F08BF95EA0C0FD7
:103E20003FF43BAF94EA0C0F0AD150EA01347FF41F
:103E300034AF95EA0C0F7FF425AF104619462CE7F6
:103E400095EA0C0F06D152EA03353FF4FDAE104659
:103E5000194622E750EA410618BF52EA43067FF4AA
:103E6000C5AE50EA41047FF40DAF52EA43057FF43A
:103E7000EBAE12E74FF0FF3C06E000BF4FF0010C45
:103E800002E000BF4FF0010C4DF804CD4FEA410CA9
:103E90007FEA6C5C4FEA430C18BF7FEA6C5C1BD076
:103EA00001B050EA410C0CBF52EA430C91EA030FF7
:103EB00002BF90EA020F0020704710F1000F91EA54
:103EC000030F58BF994208BF90422CBFD8176FEA22
:103ED000E37040F0010070474FEA410C7FEA6C5CF0
:103EE00002D150EA013C07D14FEA430C7FEA6C5CF7
:103EF000D6D152EA033CD3D05DF8040B704700BF23
:103F00008446104662468C461946634600E000BF70
:103F100001B5FFF7B7FF002848BF10F1000F01BD42
:103F20004DF808EDFFF7F4FF0CBF012000205DF80D
:103F300008FB00BF4DF808EDFFF7EAFF34BF012092
:103F400000205DF808FB00BF4DF808EDFFF7E0FF2B
:103F500094BF012000205DF808FB00BF4DF808ED7C
:103F6000FFF7CEFF94BF012000205DF808FB00BFE3
:103F70004DF808EDFFF7C4FF34BF012000205DF8C5
:103F800008FB00BF4FEA4102B2F1E04324BFB3F5A2
:103F9000001CDCF1FE5C0DD901F0004C4FEAC002C0
:103FA0004CEA5070B2F1004F40EB830008BF20F0A4
:103FB0000100704711F0804F21D113F13872BCBF5E
:103FC00001F00040704741F480114FEA5252C2F1B3
:103FD0001802C2F1200C10FA0CF320FA02F018BFFC
:103FE00040F001004FEAC1234FEAD32303FA0CFC4F
:103FF00040EA0C0023FA02F34FEA4303CCE77FEADE
:10400000625307D150EA01331EBF4FF0FE4040F427
:104010004000704701F0004040F0FE4040F40000D6
:10402000704700BF4FF0FF0C1CEAD0521EBF1CEAC5
:10403000D15392EA0C0F93EA0C0F6FD01A4480EA26
:10404000010C400218BF5FEA41211ED04FF000630F
:1040500043EA501043EA5111A0FB01310CF000403B
:10406000B1F5000F3EBF490041EAD3715B0040EA61
:10407000010062F17F02FD2A1DD8B3F1004F40EB31
:10408000C25008BF20F00100704790F0000F0CF004
:10409000004C08BF49024CEA502040EA51207F3AC8
:1040A000C2BFD2F1FF0340EAC250704740F40000A3
:1040B0004FF00003013A5DDC12F1190FDCBF00F094
:1040C00000407047C2F10002410021FA02F1C2F142
:1040D000200200FA02FC5FEA310040F1000053EADE
:1040E0004C0308BF20EADC70704792F0000F00F02C
:1040F000004C02BF400010F4000F013AF9D040EA32
:104100000C0093F0000F01F0004C02BF490011F4C5
:10411000000F013BF9D041EA0C018FE70CEAD153C3
:1041200092EA0C0F18BF93EA0C0F0AD030F0004C43
:1041300018BF31F0004CD8D180EA010000F00040F7
:10414000704790F0000F17BF90F0004F084691F0B5
:10415000000F91F0004F14D092EA0C0F01D14202EF
:104160000FD193EA0C0F03D14B0218BF084608D1B8
:1041700080EA010000F0004040F0FE4040F4000002
:10418000704740F0FE4040F4400070474FF0FF0C95
:104190001CEAD0521EBF1CEAD15392EA0C0F93EADC
:1041A0000C0F69D0A2EB030280EA010C49024FEA2E
:1041B000402037D04FF0805343EA111143EA1013E7
:1041C0000CF000408B4238BF5B0042F17D024FF49F
:1041D000000C8B4224BF5B1A40EA0C00B3EB510F7A
:1041E00024BFA3EB510340EA5C00B3EB910F24BF63
:1041F000A3EB910340EA9C00B3EBD10F24BFA3EBE8
:10420000D10340EADC001B0118BF5FEA1C1CE0D1AF
:10421000FD2A3FF650AF8B4240EBC25008BF20F062
:10422000010070470CF0004C4CEA50207F32C2BFB6
:10423000D2F1FF0340EAC250704740F400004FF053
:104240000003013A37E792F0000F00F0004C02BF84
:10425000400010F4000F013AF9D040EA0C0093F04E
:10426000000F01F0004C02BF490011F4000F013BA8
:10427000F9D041EA0C0195E70CEAD15392EA0C0F10
:1042800008D142027FF47DAF93EA0C0F7FF470AF48
:10429000084676E793EA0C0F04D14B023FF44CAF8B
:1042A00008466EE730F0004C18BF31F0004CCAD120
:1042B00030F000427FF45CAF31F000437FF43CAF5C
:1042C0005FE700BF4FEA4002B2F1FE4F0FD34FF05D
:1042D0009E03B3EB12620DD94FEA002343F0004373
:1042E00010F0004F23FA02F018BF404270474FF021
:1042F0000000704712F1610F01D1420205D110F0A8
:10430000004008BF6FF0004070474FF0000070475A
:104310007BB972B90029BEBF00204FF0004106E012
:1043200008BF00281CBF6FF000414FF0FF3000F0C5
:104330003BB882B0EC462DE9005000F005F8DDF8FE
:1043400004E002B00CBC70472DE9F041069C904699
:1043500006460F461D4600F029F808FB01FCA8FBA5
:10436000002300FB05C5B21A2B4467EB0303864606
:10437000C4E90023BDE8F0812DE9F843089E174603
:10438000804689461D4600F067F900FB05F3A0FB57
:10439000074507FB0137B8EB04043D4469EB05050D
:1043A000C6E90045BDE8F883704700BF00292DE944
:1043B000F043C0F2A8800026002BC0F29E80814608
:1043C0008E4690469C46174604460D46002B3DD12E
:1043D0008A4259D9B2FA82F33BB1C3F120029D401F
:1043E00020FA02F29F4015439C40390CB5FBF1F0D6
:1043F0001FFA87FE01FB10550EFB00F3220C42EA68
:104400000545AB4209D9ED1900F1FF3280F00B816F
:10441000AB4240F2088102383D44ED1AB5FBF1F39E
:1044200001FB13550EFB03FEA4B244EA0545AE455D
:1044300008D9ED1903F1FF3280F0F780AE4540F264
:10444000F480023B43EA0043002203E08B420FD991
:1044500000221346341C18BF012460424FF00005AF
:1044600065EB45015840514000196941BDE8F083B2
:10447000B3FA83F2002A40F089808B4202D3804550
:1044800000F2E2800123E5E712B90123B3FBF2F762
:10449000B7FA87F8B8F1000F3BD1ED1B4FEA174C84
:1044A0001FFA87FE0122B5FBFCF00CFB10550EFB3A
:1044B00000F3210C41EA0545AB4207D9ED1900F1A3
:1044C000FF3102D2AB4200F2C3800846ED1AB5FBC1
:1044D000FCF30CFB13550EFB03FEA4B244EA0545A6
:1044E000AE4507D9ED1903F1FF3102D2AE4500F216
:1044F000AD800B4643EA0043ACE752426FEA060642
:1045000063EB43035BE7404261EB41014FF0FF3651
:1045100052E707FA08F7C8F1200225FA02F34FEA3A
:10452000174CB3FBFCF11FFA87FE0CFB113324FA86
:1045300002F205FA08F50EFB01F92A43100C40EAD5
:104540000343994504FA08F407D9DB1901F1FF3058
:1045500078D2994576D902393B44C9EB0303B3FBC2
:10456000FCF00CFB10330EFB00F592B242EA034361
:104570009D4207D9DB1900F1FF325FD29D425DD920
:1045800002383B445D1B40EA01428CE7C2F1200344
:1045900028FA03F10CFA02FC41EA0C0C4FEA1C4029
:1045A0002EFA03F1B1FBF0F51FFA8CF700FB1511A1
:1045B00029FA03F30EFA02FE07FB05F943EA0E0E91
:1045C0004FEA1E4343EA0141894508FA02F808D937
:1045D00011EB0C0105F1FF3332D2894530D9023D90
:1045E0006144C9EB0101B1FBF0F300FB131107FBC0
:1045F00003F71FFA8EFE4EEA014E774508D91EEBEF
:104600000C0E03F1FF3117D2774515D9023BE64472
:1046100043EA0543A3FB0889C7EB0E0ECE4509D339
:1046200005D0002216E71046F7E613460AE7944045
:104630004445F6D2013BF4E70B46E9E71046A1E713
:104640001D46CEE7014688E7134603E7023B51E7E4
:1046500002383D443AE700BF2DE9F043002B44D136
:104660008A42154604464FD9B2FA82F70E464FB138
:10467000C7F12003B94020FA03F602FA07F50E430A
:1046800000FA07F42F0CB6FBF7F01FFA85FE07FBC4
:1046900010620EFB00F1260C46EA0243994209D94A
:1046A0005B1900F1FF3280F0EE80994240F2EB801E
:1046B00002382B44591AB1FBF7F307FB13110EFB19
:1046C00003FEA4B244EA01418E4508D9491903F119
:1046D000FF3280F0DA808E4540F2D780023B43EA19
:1046E000004000263146BDE8F0838B4247D8B3FA3C
:1046F00083F6002E48D18B4202D3824200F2CF8053
:1047000001203146BDE8F08312B90125B5FBF2F571
:10471000B5FA85FCBCF1000F78D1491B2F0C1FFAAC
:1047200085FE0126B1FBF7F007FB10110EFB00F22E
:10473000230C43EA01418A4207D9491900F1FF33AA
:1047400002D28A4200F2BC801846891AB1FBF7F304
:1047500007FB13110EFB03FEA4B244EA0142964587
:1047600008D9521903F1FF3180F09180964540F24B
:104770008E80023B43EA00403146BDE8F0830026CC
:1047800030463146BDE8F083C6F1200422FA04F534
:10479000B3402B4321FA04F74FEA1348B7FBF8FC68
:1047A0001FFA83F908FB1C7720FA04FE01FA06F5CC
:1047B00009FB0CF44EEA05054FEA154E4EEA074791
:1047C000BC4202FA06F204D9FF180CF1FF3168D39B
:1047D0008C463F1BB7FBF8F408FB147709FB04F980
:1047E000ADB245EA0741894504D9C91804F1FF353E
:1047F0005DD32C4644EA0C44A4FB0223C9EB01011F
:10480000994249D345D0204600266BE7CCF12004DD
:1048100005FA0CF521FA04F32A0CB3FBF2F61FFAA1
:1048200085FE02FB163820FA04F701FA0CF10EFBA4
:1048300006F90F433C0C44EA0843994500FA0CF48E
:1048400007D95B1906F1FF3138D2994536D9023EB6
:104850002B44C9EB0303B3FBF2F002FB10330EFB56
:1048600000F1BFB247EA0343994207D95B1900F14F
:10487000FF3721D299421FD902382B441746591AC3
:1048800040EA06464EE7104614E7134627E70B4674
:1048900070E7B0409042B6D2601E002622E7304654
:1048A00020E7BC4294D9ACF1020C1F4491E7894542
:1048B0009FD9023C19449DE73846DFE70E46C8E71A
:1048C0000238294441E700BF024B13B1024800F00F
:1048D00005B8704700000000E948000801460020C4
:1048E0000246034600F016B838B5084B084DED1ADD
:1048F000AC1018BFED1805D0013C55F8043D9847A1
:10490000002CF9D1BDE8384000F05CB8D00400209C
:10491000D40400202DE9F047254C0646256888463A
:10492000D5F8484192469946C4B360681F2817DC01
:10493000411C76B104EB8003C3F888A0D4F88851F9
:10494000012282401543022EC4F88851C3F8089111
:104950001ED0831C6160002044F82380BDE8F087EE
:10496000144B03B34FF4C870AFF300800446D0B1CA
:10497000D5F84831002784E888003846C5F8484112
:104980000121C4F88871C4F88C71002EE1D0D1E700
:10499000D4F88C311A43C4F88C21DAE705F5A674F3
:1049A000C5F84841C1E74FF0FF30BDE8F08700BFD0
:1049B000FC51000800000000F8B500BFF8BC08BCBE
:1049C0009E467047F8B500BFF8BC08BC9E467047CD
:1049D0007370656374726F6D657465722E636F6D4D
:1049E0002E756100D6D3C32000000000D600000061
:1049F000D3C32000D3200000C3000000F4F0EEE297
:104A0000EEE90000EDE8E2E5F0F1E0EBFCEDFBE9BA
:104A100000000000E5EDE5F0E0F2EEF0000000003F
:104A200056657233322E3200D1F2E0EDE4E0F0F25E
:104A3000EDFBE520F0E5E6E8ECFB3A0000000000C5
:104A400020312ECFF0E8E2FFE7EAE00020322EC866
:104A5000F1EAF0E020E6E5F1F2EAE0FF0000000014
:104A600020332EC8F1EAF0E020ECFFE3EAE0FF009B
:104A700020342EC4F3E3E02034C0000020352EC4DF
:104A8000F3E3E0203130C00020362EC4F3E3E02011
:104A90003136C000CFF0EEE8E7E2EEEBFCEDFBE9EB
:104AA00020F0E5E6E8EC0000202049313D00000060
:104AB000412831323520ECEAF1290000202049322A
:104AC0003D000000412832353020ECEAF129000099
:104AD000202049333D000000412833373520ECEADF
:104AE000F1290000202049343D00000041283530E4
:104AF0003020ECEAF12900002046203D00000000B3
:104B0000C3F600002054203D000000007573000033
:104B100020CEE1E4F3E220007428F1E5EA29000068
:104B200020CEE1E6E8E32000F1E5EA002020493D5F
:104B300000000000C3EEF2EEE220EA20F0E0E1EE39
:104B4000F2E500004E6F20537061726B2043686580
:104B5000636B20004E6F2047415320436865636BB1
:104B6000200000004E6F2050524F54204368656370
:104B70006B200000284A00083C4A000800000000A2
:104B8000000000000000000000000000FFFFFFFF29
:104B900000000000404A00083C4A000800000000F5
:104BA00000000000FFFFFFFFFFFFFFFF000000000D
:104BB000FFFFFFFF4C4A00083C4A000800000000CD
:104BC00000000000FFFFFFFFFFFFFFFF00000000ED
:104BD000FFFFFFFF604A00083C4A00080000000099
:104BE00000000000FFFFFFFFFFFFFFFF00000000CD
:104BF000FFFFFFFF704A00083C4A00080000000069
:104C000000000000FFFFFFFFFFFFFFFF00000000AC
:104C1000FFFFFFFF7C4A00083C4A0008000000003C
:104C200000000000FFFFFFFFFFFFFFFF000000008C
:104C3000FFFFFFFF884A00083C4A00080000000010
:104C400000000000FFFFFFFFFFFFFFFF000000006C
:104C5000FFFFFFFF944A00083C4A000800000000E4
:104C6000000000000000000000000000FFFFFFFF48
:104C700000000000A84A0008B04A00080000000038
:104C80001C020000010000001400000014000000DD
:104C9000FFFFFFFFBC4A0008C44A000800000000F4
:104CA0001C020000010000001400000000000000D1
:104CB000FFFFFFFFD04A0008D84A000800000000AC
:104CC0001C020000010000001400000000000000B1
:104CD000FFFFFFFFE44A0008EC4A00080000000064
:104CE0001C02000001000000140000000000000091
:104CF000FFFFFFFFF84A0008004B00081900000002
:104D000058020000000000001900000064000000CC
:104D1000FFFFFFFF044B00080C4B000819000000C8
:104D200058020000000000001900000058020000B6
:104D3000FFFFFFFF104B0008184B000800000000A9
:104D4000C8000000010000000A0000002800000068
:104D5000FFFFFFFF204B0008284B00080000000069
:104D600058020000010000000A00000000000000DE
:104D7000FFFFFFFF2C4B0008EC4A0008000000007A
:104D80001C02000001000000140000001C020000D2
:104D9000FFFFFFFF344B0008FFFFFFFFFFFFFFFF98
:104DA000FFFFFFFFFFFFFFFFFFFFFFFFFFFFFFFF13
:104DB000FFFFFFFF444B00083C4A000800000000D2
:104DC00001000000000000000100000000000000E1
:104DD00000000000544B00083C4A0008000000009E
:104DE00001000000000000000100000000000000C1
:104DF00001000000644B00083C4A0008000000006D
:104E000001000000000000000100000000000000A0
:104E100002000000D3F1F2E0EDEEE2E8F2FC000067
:104E20003F0000005BE6E5EBF2E0FF202D20E4E030
:104E3000205D00005BE4F0F3E3E8E5202D20EDE5E4
:104E4000F25D0000D3F1F2E0EDEEE2EBE5EDEE21F4
:104E500000000000CEF2ECE5EDE5EDEE2E2E2E008A
:104E6000CFF0E8E2FFE7EAE000000000C8F1EAF076
:104E7000E020E6E5F1F2EAE0FF000000C8F1EAF028
:104E8000E020ECFFE3EAE0FF00000000C4F3E3E011
:104E90002034C000C4F3E3E0203130C00000000043
:104EA000C4F3E3E0203136C000000000D0E5E6E8BE
:104EB000EC20EEF2EBE0E4EAE8000000CEE6E8E405
:104EC000E0EDE8E500000000E2EAEBFEF7E5EDE8E2
:104ED000FF20EFE8F2E0EDE8FF00000020202020B6
:104EE00020202000CFF0EEE2E5F0EAE00000000034
:104EF000CAEBFEF7E5E90000C6E4E5EC20E7E0EAEE
:104F0000F0FBF2E8FF20202020202020202020207D
:104F10002020202000000000202020202020202011
:104F20002020202020202020202020202020202081
:104F30002020202000000000CAEBFEF72023000004
:104F400020CEC1D0DBC2212121212100202D204FE4
:104F50006B000000C7E0F9E8F2E00000D8F2E0F2F0
:104F6000E8E2E000CA20EFF3F1EAF300EDE520E328
:104F7000EEF2EEE200000000CDE520E7E0E4E0ED37
:104F8000E020F7E0F1F2EEF2E0000000CDE520E7EE
:104F9000E0E4E0EDEE20E2F0E5ECFF00CDE520E717
:104FA000E0E4E0EDFB20F2EEEAE80000CFF0EEE412
:104FB000F3E2EAE02E2E2E00F1E5EA2E00000000DA
:104FC000D1D2CECF0000000020202000D0C0C7D01A
:104FD000DFC421005800000020415B0020000000D9
:104FE0005D000000487A2000CED2CAD0DBD220D8A3
:104FF000D2C0D2C8C2210000CEF8E8E1EAE0280021
:1050000069676E29000000004F76657274696D65EE
:10501000000000004920E4EEF1F2E8E3EDF3F220B5
:105020000000000020F0E0E700000000537461740D
:105030003A0000002F00000025000000D8D2C0D2A6
:10504000C8C220CDC520C3C5D0CCC5D2C8D7C5CD18
:1050500021212100C7C0D9C8D2C020D8D2C0D2C80F
:10506000C2C0212121000000D8F2E0F2E8E220E3F2
:10507000EEF2EEE200000000D0E5E6E8EC20E7E02A
:10508000EBE8EFE0EDE8FF002020202020202020AA
:105090002020202020202020202020200000000090
:1050A0005E200000202000003C0000003E000000C8
:1050B000732D000076200000207370656374726F9A
:1050C0006D657465722E636F6D2E756120202020D2
:1050D00000000000004014542D0000002E000000CD
:1050E0003000000020000000000102030405060754
:1050F00008090A0B0C0D0E0F1011121314151617B8
:1051000018191A1B1C1D1E1F2021222324252627A7
:1051100028292A2B2C2D2E2F303132333435363797
:1051200038393A3B3C3D3E3F404142434445464787
:1051300048494A4B4C4D4E4F505152535455565777
:1051400058595A5B5C5D5E5F606162636465666767
:1051500068696A6B6C6D6E6F707172737475767757
:1051600078797A7B7C7D7E7F808182838485868747
:1051700088898A8B8C8D8E8F909192939495969737
:1051800098999A9B9C9D9E9F202020202020202043
:10519000A22020202020202020202020202020208D
:1051A000B52020202020202041A042A1E045A3A43A
:1051B000A5A64BA74D484FA8504354A9AA58E1AB08
:1051C000ACE2ADAE62AFB0B161B2B3B4E365B6B755
:1051D000B8B9BABBBCBD6FBE7063BF79E478E5C037
:1051E000C1E6C2C3C4C5C6C7CAC720E220D8D2C060
:1051F000D2C8C2C52100000043000000A00000206A
:08520000ACF1FF7F010000008A
:105208001200000001000000000000000102030479
:105218000102030406070809020406080008014001
:1052280010000000500000000100000000080140CC
:1052380020000000500000000100000000080140AC
:105248004000000050000000000000000010014075
:10525800200000005000000000000000000801408D
:10526800800000005000000000000000000C014019
:105278000100000050000000000000000010014084
:10528800100000002800000000000000000C014091
:1052980002000000140000000000000000000000F0
:1052A800000000008C030020F40300205C040020B0
:1052B80000000000000000000000000000000000E6
:1052C80000000000000000000000000000000000D6
:1052D80000000000F8510008000000000000000075
:1052E80000000000000000000000000000000000B6
:1052F80000000000000000000000000000000000A6
:105308000000000000000000000000000000000095
:105318000000000000000000000000000000000085
:105328000000000000000000000000000000000075
:105338000000000000000000000000000000000065
:105348000000000000000000010000000000000054
:105358000E33CDAB34126DE6ECDE05000B00000019
:105368000000000000000000000000000000000035
:105378000000000000000000000000000000000025
:105388000000000000000000000000000000000015
:105398000000000000000000000000000000000005
:1056C8000000000000000000C94800085901000857
:0856D80035010008000000008C
:0400000508000000EF
:00000001FF
